:020000040800F2
:1000000000280020FD1800088D1500089315000831
:10001000991500089F150008A515000800000000AC
:10002000000000000000000000000000AB15000808
:10003000B715000800000000C3150008CF15000820
:100040004519000845190008451900084519000818
:100050004519000845190008451900084519000808
:1000600045190008451900084519000845190008F8
:1000700045190008451900084519000845190008E8
:1000800045190008451900084519000845190008D8
:1000900045190008451900084519000845190008C8
:1000A00045190008451900084519000845190008B8
:1000B000DD1500084519000800000000451900087A
:1000C0004519000800000000000000004519000864
:1000D0000000000045190008451900080000000054
:1000E00045190008451900084519000800000000DE
:1000F0000000000000000000000000000000000000
:0C01000000000000000000005FF808F1A3
:10010C0010B5054C237833B9044B13B10448AFF345
:10011C0000800123237010BD50000020000000005F
:10012C00442F000808B5034B1BB103490348AFF338
:10013C00008008BD0000000054000020442F00087F
:10014C0080B500AF914B1B68013B042B00F202827F
:10015C0001A252F823F000BF79010008E301000866
:10016C00BB020008C90300089F04000801F096FBBD
:10017C00864B02221A60864B1B684FF47A7202FB84
:10018C0003F3184601F034FA824B1B68824A136061
:10019C007F4B1B68814A13607E4B1B68804A13603F
:1001AC00804B1B68804A1360794B1B687F4A136035
:1001BC004FF47A7001F038FA774B1B685A1E764967
:1001CC000A60764A1268511E74480160114618463E
:1001DC0000F012FFC7E101F0D1FA01F047FB744BBC
:1001EC001B68012B21D1694B03221A606D4B1B68D4
:1001FC004FF47A7202FB03F3184601F0F9F9694BDC
:10020C001B686C4A1360644B1B685A1E62490A6077
:10021C00684A1268511E674801601146184600F082
:10022C00EBFE4FF47A7001F0FFF9634B1B68012B66
:10023C0011D1594B1B685A1E57490A60574A12680C
:10024C00511E564801601146184600F0D5FE4FF479
:10025C007A7001F0E9F9002000F072FE0346012BE0
:10026C000AD14FF4FA7001F0C3F9484B0B221A6013
:10027C0041F2883001F010FA002000F07FFE0346B6
:10028C00012B05D1FA2001F0B3F9404B0B221A6077
:10029C00012000F055FE0346012B40F05D814FF428
:1002AC007A7001F0A5F9394B0E221A6054E101F075
:1002BC0065FA01F0C3FA3E4B1B68012B25D1334B79
:1002CC0004221A60324B1B684FF47A7202FB03F360
:1002DC00184601F08DF92E4B1B68304A13602D4BDC
:1002EC001B682D4A13602D4B1B685A1E2B490A6044
:1002FC00294A1268511E284801601146184600F020
:10030C007BFE4FF47A7001F08FF92B4B1B68012B9D
:10031C0011D1214B1B685A1E1F490A60254A1268CD
:10032C00511E244801601146184600F065FE4FF43A
:10033C007A7001F079F9002000F002FE0346012BDF
:10034C0009D1FA2001F054F9104B0B221A6041F23A
:10035C00883001F0A1F9002000F010FE0346012BBB
:10036C0005D1FA2001F044F9084B0B221A60012048
:10037C0000F0E6FD0346012B40F0F0804FF47A705C
:10038C0001F036F9014B0E221A60E7E070000020F4
:10039C00100000200C0000200000002004000020B1
:1003AC0024000020140000202C0000202800002035
:1003BC00B400002008000020BC00002001F00EFA60
:1003CC0001F024FA694B1B68012B21D1684B0522E3
:1003DC001A60684B1B684FF47A7202FB03F31846E1
:1003EC0001F006F9634B1B68634A1360624B1B6890
:1003FC005A1E61490A60614A1268511E5F480160C9
:10040C001146184600F0F8FD4FF47A7001F00CF923
:10041C005B4B1B68012B11D15A4B1B685A1E594957
:10042C000A60564A1268511E54480160114618461B
:10043C0000F0E2FD4FF47A7001F0F6F8002000F0C5
:10044C007FFD0346012B0AD1FA2001F0D1F8484B6D
:10045C000B221A6041F2883001F01EF90BE00020EB
:10046C0000F08CFD0346012B05D1FA2001F0C0F8F9
:10047C003F4B0B221A60012000F062FD0346012B5A
:10048C006ED14FF47A7001F0B3F8394B0E221A602A
:10049C0066E001F08BF901F0B9F9344B1B68012BC4
:1004AC0025D1334B02221A60374B1B684FF47A72FA
:1004BC0002FB03F3184601F09BF8344B1B682F4AE0
:1004CC001360314B1B682F4A13602C4B1B685A1E50
:1004DC002A490A602B4A1268511E2A4801601146AB
:1004EC00184600F089FD4FF47A7001F09DF8244B0A
:1004FC001B68012B11D1204B1B685A1E1E490A6028
:10050C001E4A1268511E1D4801601146184600F023
:10051C0073FD4FF47A7001F087F8002000F010FDA5
:10052C000346012B09D1FA2001F062F8104B0B2283
:10053C001A6041F2883001F0AFF8002000F01EFD87
:10054C000346012B0ED1FA2001F052F8084B0B2276
:10055C001A6007E000BF06E000BF04E000BF02E045
:10056C0000BF00E000BF00BF80BD00BFB400002092
:10057C007000002014000020080000200000002063
:10058C00BC00002004000020100000200C00002003
:10059C0080B500AFA24B1B680A3B032B00F28C8288
:1005AC0001A252F823F000BFC50500081B06000885
:1005BC0061070008BB0800089A4B1B684FF47A725D
:1005CC0002FB03F3184601F013F84FF47A7001F0B4
:1005DC002BF8954B1B68954A1360924B1B68944AF9
:1005EC001360944B1B68944A1360904B1B685A1E03
:1005FC008E490A608E4A1268511E8D480160114660
:10060C00184600F0F9FC864B02221A6055E28B4B1F
:10061C001B68012B0ED1012000F092FC0346002B2D
:10062C0008D1012000F08CFC0346002B02D17C4B3E
:10063C000A221A60824B1B68002B04D101F09EF831
:10064C0001F0E4F801E001F029F9002000F078FC59
:10065C000346012B0ED1724B0C221A604FF4FA7028
:10066C0000F0C6FF41F2883001F016F8744B0022FE
:10067C001A6013E0002000F081FC0346012B0DD121
:10068C00674B0C221A604FF4FA7000F0B1FF41F284
:10069C00883001F001F86A4B00221A60694B1B6824
:1006AC00012B09D14FF4FA7000F0A2FF644B1B68C8
:1006BC00C3F10103624A1360012000F041FC0346C0
:1006CC00012B16D141F2883000F0E6FF5E4B1B681F
:1006DC0001335D4A13605C4B1B68632B02DD5A4B84
:1006EC0001221A60584B1B681946022000F084FC4A
:1006FC001BE0012000F042FC0346012B15D141F216
:10070C00883000F0C9FF504B1B6801334E4A136010
:10071C004D4B1B68632B02DD4B4B01221A604A4B7D
:10072C001B681946022000F067FC022000F008FC50
:10073C000346012B07D141F2883000F0ADFF424B4C
:10074C001B68394A1360384B1B681946022000F0AD
:10075C0053FCB2E1394B1B68012B02D1304B0A22FE
:10076C001A60374B1B68002B04D101F01FF801F005
:10077C0065F801E001F092F8002000F0E1FB03467F
:10078C00012B0ED141F2883000F086FF244B0D2254
:10079C001A604FF4FA7000F02BFF294B00221A60FC
:1007AC0013E0002000F0EAFB0346012B0DD141F2CF
:1007BC00883000F071FF1A4B0D221A604FF4FA705A
:1007CC0000F016FF1E4B00221A601E4B1B68012BFB
:1007DC0009D14FF4FA7000F00BFF194B1B68C3F1F1
:1007EC000103174A1360012000F0AAFB0346012BFA
:1007FC002CD141F2883000F04FFF0F4B1B680133B6
:10080C000D4A13600C4B1B68632B02DD0A4B012253
:10081C001A60094B1B681946032000F0EDFB31E010
:10082C0070000020100000200C00002000000020B0
:10083C0004000020140000202C000020CC0000201C
:10084C006C000020B400002024000020012000F0E7
:10085C0095FB0346012B15D141F2883000F01CFFAB
:10086C00974B1B680133964A1360954B1B68632B9F
:10087C0002DD934B01221A60914B1B681946032031
:10088C0000F0BAFB022000F05BFB0346012B07D102
:10089C0041F2883000F000FF894B1B68894A1360D5
:1008AC00884B1B681946032000F0A6FB05E1864B1C
:1008BC001B68012B02D1854B0A221A60002000F024
:1008CC003FFB0346012B4CD141F2883000F0E4FE93
:1008DC007E4B0A221A607E4B1A687E4B1968794B44
:1008EC001B680B44D31A002B80F28C80794B1A684E
:1008FC00744B1B681A44764B1B689A4218DD764B76
:10090C001B68704A1360754B1B68724A1360744BFA
:10091C001B686F4A1360704B1B68694A13606F4BFE
:10092C001B68704A13606E4B1B686F4A136069E05A
:10093C00644B1B68684A1360664B1B68674A1360FC
:10094C00634B1B68664A1360634B1B685C4A1360FD
:10095C00624B1B68634A1360614B1B68624A1360ED
:10096C0050E0002000F00AFB0346012B4AD141F273
:10097C00883000F091FE554B0A221A60544B1A68CD
:10098C00544B19684F4B1B680B44D31A002B39DAA4
:10099C00504B1A684B4B1B681A444D4B1B689A42C0
:1009AC0018DD4D4B1B68474A13604C4B1B68494A7A
:1009BC0013604B4B1B68464A1360474B1B68404AFD
:1009CC001360464B1B68474A1360454B1B68464AED
:1009DC00136017E03B4B1B683F4A13603D4B1B6891
:1009EC003E4A13603A4B1B683D4A13603A4B1B68F6
:1009FC00334A1360394B1B683A4A1360384B1B68F7
:100A0C00394A1360394B1B68002B04D100F0E6FE09
:100A1C0000F02CFF01E000F041FF354B1B68012B6F
:100A2C0009D1324B1B68C3F10103304A13604FF4F8
:100A3C00FA7000F0DDFD012000F082FA0346012B74
:100A4C000FD141F2883000F027FE264B1B68013392
:100A5C00244A1360234B1B68632B02DD214B0122BC
:100A6C001A60012000F08AFA0346012B0FD141F2E3
:100A7C00883000F011FE1B4B1B680133194A1360C0
:100A8C00184B1B68632B02DD164B01221A600220E7
:100A9C0000F056FA0346012B07D141F2883000F0E2
:100AAC00FBFD104B1B680B4A13600A4B1B68194665
:100ABC00042000F0A1FA00E000BF00BF80BD00BF21
:100ACC002C00002014000020CC000020700000201E
:100ADC000C00002010000020200000201C00002032
:100AEC001800002028000020240000206C000020AA
:100AFC00B400002080B500AF934B1B68102B00F0A6
:100B0C00C380102B00F317810E2B02D00F2B5ED05D
:100B1C0011E18E4B1B681946012000F06DFA00F0B4
:100B2C002DFE00F073FE002000F00AFA0346012BA4
:100B3C0004D1864B1B68013B844A1360002000F0F3
:100B4C001DFA0346012B04D1804B1B68013B7F4AE5
:100B5C001360022000F0F4F90346012B04D17B4B07
:100B6C001B680133794A1360022000F007FA034630
:100B7C00012B04D1754B1B680133744A1360734B02
:100B8C001B68002B02DA714B63221A606F4B1B68D7
:100B9C00632B02DD6D4B00221A60012000F0D0F9AE
:100BAC000346012B05D1FA2000F022FD664B0F22E3
:100BBC001A60012000F0E2F90346012B40F0BD80E1
:100BCC00FA2000F015FD604B02221A60B5E0604B74
:100BDC001B681946022000F00FFA00F0E7FD00F048
:100BEC002DFE002000F0ACF90346012B04D1584B2C
:100BFC001B68013B564A1360002000F0BFF9034606
:100C0C00012B04D1524B1B68013B514A136002204B
:100C1C0000F096F90346012B04D14D4B1B680133B0
:100C2C004B4A1360022000F0A9F90346012B04D1B2
:100C3C00474B1B680133464A1360454B1B68002B1E
:100C4C0002DA434B63221A60414B1B68632B02DDB3
:100C5C003F4B00221A60012000F072F90346012B71
:100C6C0005D1FA2000F0C4FC374B10221A60012089
:100C7C0000F084F90346012B61D1FA2000F0B8FC96
:100C8C00314B04221A605AE0324B1B681946032080
:100C9C0000F0B2F900F0A2FD00F0E8FD002000F039
:100CAC004FF90346012B04D12A4B1B68013B294AFF
:100CBC001360002000F062F90346012B04D1254B90
:100CCC001B68013B234A1360022000F039F90346EC
:100CDC00012B04D11F4B1B6801331E4A13600020EB
:100CEC0000F04CF90346012B04D11A4B1B6801335D
:100CFC00184A1360174B1B68002B02DA154B632242
:100D0C001A60144B1B68632B02DD124B00221A6015
:100D1C00012000F033F90346012B05D0012000F02F
:100D2C000FF90346012B0CD1FA2000F061FC064BA5
:100D3C0004221A6005E000BF04E000BF02E000BF1F
:100D4C0000E000BF00BF80BD700000200C00002040
:100D5C00140000201000002080B582B000AF0023EA
:100D6C007B60D1E06D4A7B68134419786C4A7B68D0
:100D7C0013440A461A707B68022B21D07B68022B25
:100D8C002ADC7B68002B03D07B68012B0CD023E082
:100D9C000221644801F0BCF8034619465F4A7B689F
:100DAC0013440A461A7018E004215E4801F0B0F8AA
:100DBC0003461946594A7B6813440A461A700CE0DC
:100DCC000821584801F0A4F803461946534A7B6899
:100DDC0013440A461A7000E000BF504A7B68134463
:100DEC001A784F497B680B441B789A4240F08980F3
:100DFC004A4A7B68134419784B4A7B6813440A4669
:100E0C001A70494A7B6813441B78002B44D1474A1B
:100E1C007B6832F81330632B1FD8444A7B6832F856
:100E2C001330013399B2414A7B6822F813103F4AC0
:100E3C007B6832F81330642B2ED13D4A7B68134407
:100E4C0001221A703B4A7B68134400221A703A4AFA
:100E5C007B68002122F813101EE0374A7B6832F8B9
:100E6C001330013399B2344A7B6822F81310324A9A
:100E7C007B6832F81330182B0ED92E4A7B6813443A
:100E8C0000221A702A4A7B68134401221A702A4ADB
:100E9C007B68002122F81310234A7B6813441B78CB
:100EAC00012B25D1254A7B6813441B78002B1FD1BD
:100EBC001E4A7B6832F81330002B0AD01B4A7B6821
:100ECC0032F81330632B04D81A4A7B68134401227E
:100EDC001A70164A7B68002122F81310164A7B6898
:100EEC00002122F81310124A7B68134400221A7056
:100EFC000D4A7B6813441978104A7B6813440A46E0
:100F0C001A707B6801337B607B68022B7FF72AAFFA
:100F1C0000BF00BF0837BD4680BD00BF7C0000206D
:100F2C008000002000080140740000208C0000208C
:100F3C00840000208800002094000020780000200D
:100F4C0080B483B000AF0346FB71FB79022B01D94F
:100F5C0000230BE0FB79084AD35C012B05D1FB790C
:100F6C00054A0021D154012300E0002318460C3718
:100F7C00BD4680BC704700BF8800002080B483B0A1
:100F8C0000AF0346FB71FB79022B01D900230BE068
:100F9C00FB79084AD35C012B05D1FB79054A00216A
:100FAC00D154012300E0002318460C37BD4680BC09
:100FBC00704700BF8400002080B584B000AF78601B
:100FCC000B4A7B6832F81330FB81FB8900221946EF
:100FDC00084800F0B4FFFB89DB439BB201221946A1
:100FEC00044800F0ACFF00BF1037BD4680BD00BF09
:100FFC0030000020000C014080B483B000AF78605A
:10100C0039607B68184A82FB03129210DB17D31AE3
:10101C00164A13607968144B83FB01239A10CB1783
:10102C00D21A13469B0013445B00CA1A0F4B5A602A
:10103C003B680D4A82FB03129210DB17D31A0B4A42
:10104C0093603968084B83FB01239A10CB17D21A93
:10105C0013469B0013445B00CA1A044BDA6000BFB2
:10106C000C37BD4680BC7047676666669C000020E6
:10107C0080B582B000AF78607B68032B50D801A29A
:10108C0052F823F0A1100008C3100008E510000866
:10109C000911000800224021244800F050FF0122D1
:1010AC004FF46071214800F04AFF214B1B68184631
:1010BC00FFF782FF35E0002280211C4800F03FFF43
:1010CC0001224FF45071194800F039FF184B5B683E
:1010DC001846FFF771FF24E000224FF4807113488B
:1010EC0000F02DFF01224FF43071104800F027FF63
:1010FC000F4B9B681846FFF75FFF12E000224FF47E
:10110C0000710A4800F01BFF01224FF4E071074800
:10111C0000F015FF064BDB681846FFF74DFF00E0AB
:10112C0000BF00BF0837BD4680BD00BF00080140AE
:10113C009C00002080B500AF4D4B1B68012B40F08C
:10114C0095800220FFF7FCFE0346012B1DD1494B75
:10115C001A68494B1B689A4203D0474B1B68454A97
:10116C001360464B1A68464B1B689A4203D0444B9B
:10117C001B68424A1360434B1A68434B1B689A42E4
:10118C0003D0414B1B683B4A13600220FFF7F6FE6D
:10119C000346012B3AD13C4B1A68394B1B681A4455
:1011AC00354B1B689A4231D0334B1A68364B196851
:1011BC00334B1B680B44D31A002B0BDD304B1B68D5
:1011CC0001332F4A13602C4B1A682D4B1B68D31A12
:1011DC002D4A1360284B1A682B4B1968284B1B6837
:1011EC000B44D31A002B11DA274B1A68244B1B68BB
:1011FC001A44214B1B689A4208DD214B02221A60CB
:10120C00214B03221A601C4B05221A601F4B1B68D2
:10121C000B2B05D1174B1B6819460220FFF7ECFE70
:10122C001A4B1B680C2B05D1144B1B681946032059
:10123C00FFF7E2FE154B1B680D2B05D1114B1B68FC
:10124C0019460420FFF7D8FE114B1B685A1C104995
:10125C000A601846FFF70CFF0D4B1B68032B02DDD1
:10126C000B4B00221A60FA2000F0FAF900BF80BD87
:10127C00C4000020240000200C0000202C000020C2
:10128C001400002028000020100000207000002016
:10129C00AC00002080B500AF00F050FB00F01AF855
:1012AC0000F0A0F800F052F8084801F08DFA084B55
:1012BC0001221A60642000F0D3F9FEF741FFFFF71A
:1012CC0067F9FFF717FCFFF735FFF6E7D0000020B2
:1012DC007000002080B590B000AF07F118032822F1
:1012EC000021184601F020FE3B1D00221A605A60B6
:1012FC009A60DA601A610223BB610123BB6210237E
:10130C00FB6200237B6307F11803184600F030FEE4
:10131C000346002B01D000F0D8F80F237B6000238C
:10132C00BB600023FB6000233B6100237B613B1D02
:10133C000021184601F09CF80346002B01D000F068
:10134C00C4F800BF4037BD4680BD000080B586B0F4
:10135C0000AF07F1080300221A605A609A60DA6045
:10136C003B4600221A605A601D4B4FF080421A60B7
:10137C001B4B41F63F725A60194B00229A60184B76
:10138C000922DA60164B00221A61154B00229A6171
:10139C00134801F0C9F90346002B01D000F095F871
:1013AC004FF48053BB6007F1080319460C4801F059
:1013BC0047FB0346002B01D000F087F800233B606D
:1013CC0000237B603B461946054801F01FFD034690
:1013DC00002B01D000F079F800BF1837BD4680BD56
:1013EC00D000002080B586B000AF07F108030022C2
:1013FC001A605A609A60DA60284B9B69274A43F05E
:10140C0004039361254B9B6903F004037B607B68A9
:10141C00224B9B69214A43F0080393611F4B9B6944
:10142C0003F008033B603B6800224FF470711C48CA
:10143C0000F085FD002243F67F711A4800F07FFD15
:10144C000E23BB600023FB6000233B6107F1080304
:10145C001946134800F0E2FB4FF47073BB60012394
:10146C00FB6000233B6102237B6107F108031946F3
:10147C000B4800F0D3FB43F67F73BB600123FB608A
:10148C0000233B6102237B6107F1080319460548E1
:10149C0000F0C4FB00BF1837BD4680BD00100240F1
:1014AC0000080140000C014080B582B000AF7860AC
:1014BC007B681B68B3F1804F03D1FFF74DFC00F044
:1014CC0007F900BF0837BD4680BD80B400AF72B6C7
:1014DC0000BFFEE780B485B000AF154B9B69144A82
:1014EC0043F001039361124B9B6903F00103BB6052
:1014FC00BB680F4BDB690E4A43F08053D3610C4B36
:10150C00DB6903F080537B607B680A4B5B68FB6094
:10151C00FB6823F0E063FB60FB6843F00073FB6047
:10152C00044AFB68536000BF1437BD4680BC70474B
:10153C00001002400000014080B584B000AF78601C
:10154C007B681B68B3F1804F13D10C4BDB690B4AE2
:10155C0043F00103D361094BDB6903F00103FB602A
:10156C00FB68002200211C2000F021FB1C2000F055
:10157C003AFB00BF1037BD4680BD00BF00100240D3
:10158C0080B400AFFEE780B400AFFEE780B400AFDC
:10159C00FEE780B400AFFEE780B400AFFEE780B496
:1015AC0000AF00BFBD4680BC704780B400AF00BF29
:1015BC00BD4680BC704780B400AF00BFBD4680BC48
:1015CC00704780B500AF00F0FFF900BF80BD000090
:1015DC0080B500AF024801F043F900BF80BD00BFE9
:1015EC00D000002080B400AF00BFBD4680BC704767
:1015FC0080B483B000AF78607B68084A82FB03122A
:10160C009210DB17D31A064A1360064B00221A609D
:10161C0000BF0C37BD4680BC704700BF676666666E
:10162C00B0000020B400002080B483B000AF78601C
:10163C007B68084A82FB03129210DB17D31A064A06
:10164C001360064B00221A6000BF0C37BD4680BCED
:10165C00704700BF67666666B8000020BC000020BB
:10166C0080B483B000AF78607B68084A82FB0312B9
:10167C009210DB17D31A064A1360064B00221A602D
:10168C0000BF0C37BD4680BC704700BF67666666FE
:10169C00C0000020C400002080B483B000AF78608C
:1016AC007B68084A82FB03129210DB17D31A064A96
:1016BC001360064B00221A6000BF0C37BD4680BC7D
:1016CC00704700BF67666666C8000020CC0000202B
:1016DC0080B400AF214B1B68002B0BDD1F4B1B682C
:1016EC00013B1E4A13601D4B1B68002B02DC1C4B7C
:1016FC0001221A601B4B1B68002B0BDD194B1B685E
:10170C00013B184A1360174B1B68002B02DC164B6D
:10171C0001221A60154B1B68002B0BDD134B1B6849
:10172C00013B124A1360114B1B68002B02DC104B5F
:10173C0001221A600F4B1B68002B0BDD0D4B1B6835
:10174C00013B0C4A13600B4B1B68002B02DC0A4B51
:10175C0001221A6000BFBD4680BC7047B00000205B
:10176C00B4000020B8000020BC000020C000002005
:10177C00C4000020C8000020CC00002080B500AFC1
:10178C0001224FF48071084800F0D9FB00224FF47D
:10179C000071054800F0D3FB00224FF48061024831
:1017AC0000F0CDFB00BF80BD000C014080B500AF48
:1017BC0000224FF48071084800F0C1FB01224FF465
:1017CC000071054800F0BBFB00224FF48061024819
:1017DC0000F0B5FB00BF80BD000C014080B500AF30
:1017EC0000224FF48071084800F0A9FB00224FF44E
:1017FC000071054800F0A3FB01224FF48061024800
:10180C0000F09DFB00BF80BD000C014080B500AF17
:10181C0001224FF40061084800F091FB00224FF4C4
:10182C008051054800F08BFB00224FF40051024818
:10183C0000F085FB00BF80BD000C014080B500AFFF
:10184C0000224FF40061084800F079FB01224FF4AC
:10185C008051054800F073FB00224FF40051024800
:10186C0000F06DFB00BF80BD000C014080B500AFE7
:10187C0000224FF40061084800F061FB00224FF495
:10188C008051054800F05BFB01224FF400510248E7
:10189C0000F055FB00BF80BD000C014080B500AFCF
:1018AC0000224FF48071114800F049FB00224FF4E4
:1018BC0000610E4800F043FB00224FF400710B480E
:1018CC0000F03DFB00224FF48061084800F037FB2C
:1018DC0000224FF48051054800F031FB00224FF4F8
:1018EC000051024800F02BFB00BF80BD000C0140F2
:1018FC00FFF778FE0B480C490C4A002302E0D45841
:10190C00C4500433C4188C42F9D3094A094C00233F
:10191C0001E013600432A242FBD301F0E1FAFFF7BD
:10192C00B9FC70470000002050000020882F0008F0
:10193C00500000201C010020FEE7000080B500AF25
:10194C00084B1B68074A43F010031360032000F098
:10195C0023F90F2000F008F8FFF7BCFD0023184610
:10196C0080BD00BF0020024080B582B000AF78601F
:10197C00124B1A68124B1B7819464FF47A73B3FB4F
:10198C00F1F3B2FBF3F3184600F03BF90346002BDE
:10199C0001D001230EE07B680F2B0AD80022796856
:1019AC004FF0FF3000F003F9064A7B681360002308
:1019BC0000E0012318460837BD4680BD44000020D6
:1019CC004C0000204800002080B400AF054B1B7871
:1019DC001A46054B1B681344034A136000BFBD46EF
:1019EC0080BC70474C0000201801002080B400AF70
:1019FC00024B1B681846BD4680BC7047180100207E
:101A0C0080B485B000AF78607B6803F00703FB609F
:101A1C000C4BDB68BB60BA684FF6FF031340BB602E
:101A2C00FB681A02BB68134343F0BF6343F40033F3
:101A3C00BB60044ABB68D36000BF1437BD4680BC92
:101A4C00704700BF00ED00E080B400AF044BDB68D2
:101A5C001B0A03F007031846BD4680BC704700BF45
:101A6C0000ED00E080B483B000AF0346FB7197F942
:101A7C000730002B0BDBFB7903F01F02064997F9AB
:101A8C0007305B09012000FA02F241F8232000BF65
:101A9C000C37BD4680BC704700E100E080B483B0D9
:101AAC0000AF03463960FB7197F90730002B0ADB56
:101ABC003B68DAB20C4997F907301201D2B20B44E9
:101ACC0083F800230AE03B68DAB20849FB7903F09B
:101ADC000F03043B1201D2B20B441A7600BF0C3731
:101AEC00BD4680BC704700BF00E100E000ED00E0A7
:101AFC0080B489B000AFF860B9607A60FB6803F01D
:101B0C000703FB61FB69C3F10703042B28BF042304
:101B1C00BB61FB690433062B02D9FB69033B00E074
:101B2C0000237B614FF0FF32BB6902FA03F3DA4307
:101B3C00BB681A407B699A404FF0FF317B6901FA10
:101B4C0003F3D9437B680B40134318462437BD4637
:101B5C0080BC704780B582B000AF78607B68013B79
:101B6C00B3F1807F01D301230FE00A4A7B68013B6C
:101B7C0053600F214FF0FF30FFF790FF054B002211
:101B8C009A60044B07221A60002318460837BD469A
:101B9C0080BD00BF10E000E080B582B000AF78607F
:101BAC007868FFF72DFF00BF0837BD4680BD80B5B4
:101BBC0086B000AF0346B9607A60FB7300237B618B
:101BCC00FFF742FF78617A68B9687869FFF790FF90
:101BDC00024697F90F3011461846FFF75FFF00BF1A
:101BEC001837BD4680BD80B582B000AF0346FB718F
:101BFC0097F907301846FFF735FF00BF0837BD4689
:101C0C0080BD80B582B000AF78607868FFF7A2FF26
:101C1C00034618460837BD4680BD000080B48BB023
:101C2C0000AF7860396000237B6200233B6248E19F
:101C3C0001227B6A02FA03F3FB613B681B68FA69B9
:101C4C001340BB61BA69FB699A4240F037813B682B
:101C5C005B68A34A93425ED0A14A934275D8A14ACD
:101C6C00934258D09F4A93426FD89F4A934252D086
:101C7C009D4A934269D89D4A93424CD09B4A9342C9
:101C8C0063D89B4A934246D0994A93425DD8122B13
:101C9C002AD8122B59D801A252F823F0231D000880
:101CAC00FD1C00080F1D0008511D0008571D0008E1
:101CBC00571D0008571D0008571D0008571D000828
:101CCC00571D0008571D0008571D0008571D000818
:101CDC00571D0008571D0008571D0008571D000808
:101CEC00051D0008191D0008824A934213D02CE0F0
:101CFC003B68DB683B6229E03B68DB6804333B6292
:101D0C0024E03B68DB6808333B621FE03B68DB6820
:101D1C000C333B621AE03B689B68002B02D1042316
:101D2C003B6213E03B689B68012B05D108233B62A7
:101D3C007B68FA691A6109E008233B627B68FA69DF
:101D4C005A6103E000233B6200E000BFBB69FF2B3C
:101D5C0001D87B6801E07B6804337B61BB69FF2B96
:101D6C0002D87B6A9B0002E07B6A083B9B003B61CC
:101D7C007B691A680F213B6901FA03F3DB431A40B4
:101D8C00396A3B6901FA03F31A437B691A603B68B1
:101D9C005B6803F08053002B00F09080564B9B69DE
:101DAC00554A43F001039361534B9B6903F00103C4
:101DBC00BB60BB68514A7B6A9B08023352F82330E4
:101DCC00FB607B6A03F003039B000F2202FA03F310
:101DDC00DB43FA681340FB607B68494A93420DD0A1
:101DEC007B68484A934207D07B68474A934201D1AB
:101DFC00022304E0032302E0012300E000237A6ABB
:101E0C0002F0030292009340FA681343FB603B49D3
:101E1C007B6A9B080233FA6841F823203B685B68B5
:101E2C0003F48013002B06D0384B9A683749BB69F2
:101E3C0013438B6006E0354B9A68BB69DB4333492F
:101E4C0013408B603B685B6803F40013002B06D0D7
:101E5C002E4BDA682D49BB691343CB6006E02B4B44
:101E6C00DA68BB69DB4329491340CB603B685B688C
:101E7C0003F40033002B06D0244B5A682349BB696A
:101E8C0013434B6006E0214B5A68BB69DB431F4987
:101E9C0013404B603B685B6803F48033002B06D027
:101EAC001A4B1A681949BB6913430B6006E0174BB0
:101EBC001A68BB69DB43154913400B607B6A01331D
:101ECC007B623B681A687B6A22FA03F3002B7FF46F
:101EDC00AFAE00BF00BF2C37BD4680BC704700BF03
:101EEC000000321000003110000022100000211000
:101EFC000000121000001110001002400000014000
:101F0C0000080140000C0140001001400004014099
:101F1C0080B485B000AF78600B467B807B689A6894
:101F2C007B881340002B02D00123FB7301E00023BC
:101F3C00FB73FB7B18461437BD4680BC704780B4DE
:101F4C0083B000AF78600B467B8013467B707B7848
:101F5C00002B03D07A887B681A6103E07B881A0413
:101F6C007B681A6100BF0C37BD4680BC704700000F
:101F7C0080B586B000AF78607B68002B01D101235F
:101F8C006CE27B681B6803F00103002B00F0878078
:101F9C00924B5B6803F00C03042B0CD08F4B5B68EB
:101FAC0003F00C03082B12D18C4B5B6803F48033C9
:101FBC00B3F5803F0BD1894B1B6803F40033002B26
:101FCC006CD07B685B68002B68D1012346E27B6890
:101FDC005B68B3F5803F06D1804B1B687F4A43F4A6
:101FEC00803313602EE07B685B68002B0CD17B4B3D
:101FFC001B687A4A23F480331360784B1B68774A4A
:10200C0023F4802313601DE07B685B68B3F5A02F7D
:10201C000CD1724B1B68714A43F4802313606F4BD5
:10202C001B686E4A43F4803313600BE06B4B1B68E8
:10203C006A4A23F480331360684B1B68674A23F4A5
:10204C00802313607B685B68002B13D0FFF7CEFCFA
:10205C00386108E0FFF7CAFC02463B69D31A642BCF
:10206C0001D90323FAE15D4B1B6803F40033002B09
:10207C00F0D014E0FFF7BAFC386108E0FFF7B6FCCB
:10208C0002463B69D31A642B01D90323E6E1534B77
:10209C001B6803F40033002BF0D100E000BF7B6819
:1020AC001B6803F00203002B63D04C4B5B6803F0FE
:1020BC000C03002B0BD0494B5B6803F00C03082B73
:1020CC001CD1464B5B6803F48033002B16D1434B79
:1020DC001B6803F00203002B05D07B681B69012BE6
:1020EC0001D00123BAE13D4B1B6823F0F8027B6859
:1020FC005B69DB00394913430B603AE07B681B6971
:10210C00002B20D0364B01221A60FFF76FFC386190
:10211C0008E0FFF76BFC02463B69D31A022B01D98E
:10212C0003239BE12D4B1B6803F00203002BF0D023
:10213C002A4B1B6823F0F8027B685B69DB0027499C
:10214C0013430B6015E0264B00221A60FFF74EFC80
:10215C00386108E0FFF74AFC02463B69D31A022BB0
:10216C0001D903237AE11D4B1B6803F00203002BFA
:10217C00F0D17B681B6803F00803002B3AD07B6816
:10218C009B69002B19D0174B01221A60FFF72EFC0C
:10219C00386108E0FFF72AFC02463B69D31A022B90
:1021AC0001D903235AE10D4B5B6A03F00203002BA8
:1021BC00F0D0012000F09AFA1CE00A4B00221A60C1
:1021CC00FFF714FC38610FE0FFF710FC02463B6987
:1021DC00D31A022B08D9032340E100BF00100240A0
:1021EC0000004242800442429E4B5B6A03F00203B1
:1021FC00002BE9D17B681B6803F00403002B00F073
:10220C00A6800023FB75974BDB6903F08053002BF2
:10221C000DD1944BDB69934A43F08053D361914BBE
:10222C00DB6903F08053BB60BB680123FB758E4BED
:10223C001B6803F48073002B18D18B4B1B688A4AE4
:10224C0043F480731360FFF7D1FB386108E0FFF7AC
:10225C00CDFB02463B69D31A642B01D90323FDE065
:10226C00814B1B6803F48073002BF0D07B68DB6818
:10227C00012B06D17B4B1B6A7A4A43F00103136294
:10228C002DE07B68DB68002B0CD1764B1B6A754A02
:10229C0023F001031362734B1B6A724A23F004038D
:1022AC0013621CE07B68DB68052B0CD16D4B1B6A41
:1022BC006C4A43F0040313626A4B1B6A694A43F08D
:1022CC00010313620BE0674B1B6A664A23F00103A0
:1022DC001362644B1B6A634A23F0040313627B682A
:1022EC00DB68002B15D0FFF781FB38610AE0FFF7A4
:1022FC007DFB02463B69D31A41F28832934201D9E5
:10230C000323ABE0574B1B6A03F00203002BEED008
:10231C0014E0FFF76BFB38610AE0FFF767FB02463E
:10232C003B69D31A41F28832934201D9032395E0D9
:10233C004C4B1B6A03F00203002BEED1FB7D012BEF
:10234C0005D1484BDB69474A23F08053D3617B6846
:10235C00DB69002B00F08180424B5B6803F00C03BF
:10236C00082B61D07B68DB69022B46D13F4B0022E6
:10237C001A60FFF73BFB386108E0FFF737FB0246BA
:10238C003B69D31A022B01D9032367E0354B1B6839
:10239C0003F00073002BF0D17B681B6AB3F5803F10
:1023AC0008D1304B5B6823F400327B689B682D4965
:1023BC0013434B602B4B5B6823F474127B68196AD4
:1023CC007B685B6A0B43274913434B60274B012205
:1023DC001A60FFF70BFB386108E0FFF707FB0246BA
:1023EC003B69D31A022B01D9032337E01D4B1B6821
:1023FC0003F00073002BF0D02FE01C4B00221A606E
:10240C00FFF7F4FA386108E0FFF7F0FA02463B698F
:10241C00D31A022B01D9032320E0124B1B6803F0C3
:10242C000073002BF0D118E07B68DB69012B01D124
:10243C00012313E00B4B5B68FB60FB6803F48032F9
:10244C007B681B6A9A4206D1FB6803F470127B68A6
:10245C005B6A9A4201D0012300E00023184618372A
:10246C00BD4680BD0010024000700040600042423A
:10247C0080B584B000AF786039607B68002B01D1E7
:10248C000123D0E06A4B1B6803F007033A689A42B9
:10249C0010D9674B1B6823F0070265493B6813434F
:1024AC000B60634B1B6803F007033A689A4201D038
:1024BC000123B8E07B681B6803F00203002B20D0DB
:1024CC007B681B6803F00403002B05D0594B5B6839
:1024DC00584A43F4E06353607B681B6803F00803BD
:1024EC00002B05D0534B5B68524A43F46053536046
:1024FC00504B5B6823F0F0027B689B684D4913439B
:10250C004B607B681B6803F00103002B40D07B6899
:10251C005B68012B07D1474B1B6803F40033002B7E
:10252C0015D101237FE07B685B68022B07D1414BFF
:10253C001B6803F00073002B09D1012373E03D4BA2
:10254C001B6803F00203002B01D101236BE0394B14
:10255C005B6823F003027B685B68364913434B606E
:10256C00FFF744FAF8600AE0FFF740FA0246FB680E
:10257C00D31A41F28832934201D9032353E02D4BF5
:10258C005B6803F00C027B685B689B009A42EBD1A2
:10259C00274B1B6803F007033A689A4210D2244B6E
:1025AC001B6823F0070222493B6813430B60204B46
:1025BC001B6803F007033A689A4201D0012332E00A
:1025CC007B681B6803F00403002B08D0194B5B6875
:1025DC0023F4E0627B68DB68164913434B607B682D
:1025EC001B6803F00803002B09D0124B5B6823F423
:1025FC0060527B681B69DB000E4913434B6000F093
:10260C0021F802460B4B5B681B0903F00F030A49C8
:10261C00CB5C22FA03F3094A1360094B1B6818467A
:10262C00FFF7A2F9002318461037BD4680BD00BF46
:10263C0000200240001002405C2F000844000020E3
:10264C004800002080B487B000AF0023FB6000235B
:10265C00BB6000237B6100237B6000233B611E4B2E
:10266C005B68FB60FB6803F00C03042B02D0082BA7
:10267C0003D027E0194B3B6127E0FB689B0C03F070
:10268C000F03174AD35C7B60FB6803F48033002B89
:10269C0010D0114B5B685B0C03F00103114AD35C47
:1026AC00BB607B680D4A02FB03F2BB68B2FBF3F321
:1026BC007B6104E07B680C4A02FB03F37B617B6962
:1026CC003B6102E0054B3B6100BF3B6918461C3780
:1026DC00BD4680BC704700BF0010024000127A005B
:1026EC006C2F00087C2F000800093D0080B485B0D9
:1026FC0000AF78600A4B1B680A4AA2FB03235B0AF3
:10270C007A6802FB03F3FB6000BFFB685A1EFA6099
:10271C00002BF9D100BF00BF1437BD4680BC7047F9
:10272C0044000020D34D621080B582B000AF7860B9
:10273C007B68002B01D1012341E07B6893F83D308D
:10274C00DBB2002B06D17B68002283F83C20786832
:10275C00FEF7F2FE7B68022283F83D207B681A6844
:10276C007B6804331946104600F056FA7B68012248
:10277C0083F846207B68012283F83E207B68012287
:10278C0083F83F207B68012283F840207B6801227C
:10279C0083F841207B68012283F842207B68012268
:1027AC0083F843207B68012283F844207B68012254
:1027BC0083F845207B68012283F83D2000231846CE
:1027CC000837BD4680BD000080B485B000AF78608E
:1027DC007B6893F83D30DBB2012B01D0012335E04F
:1027EC007B68022283F83D207B681B68DA687B6873
:1027FC001B6842F00102DA607B681B68164A934240
:10280C0009D07B681B68B3F1804F04D07B681B68D0
:10281C00124A934211D17B681B689B6803F0070333
:10282C00FB60FB68062B10D07B681B681A687B6802
:10283C001B6842F001021A6007E07B681B681A688B
:10284C007B681B6842F001021A600023184614379B
:10285C00BD4680BC704700BF002C01400004004006
:10286C0080B584B000AF78607B681B68DB68FB6068
:10287C007B681B681B69BB60BB6803F00203002B01
:10288C0020D0FB6803F00203002B1BD07B681B6875
:10289C006FF002021A617B6801221A777B681B6851
:1028AC009B6903F00303002B03D0786800F098F9C0
:1028BC0005E0786800F08BF9786800F09AF97B688D
:1028CC0000221A77BB6803F00403002B20D0FB68AE
:1028DC0003F00403002B1BD07B681B686FF0040211
:1028EC001A617B6802221A777B681B689B6903F468
:1028FC004073002B03D0786800F072F905E078681B
:10290C0000F065F9786800F074F97B6800221A779A
:10291C00BB6803F00803002B20D0FB6803F008030E
:10292C00002B1BD07B681B686FF008021A617B6858
:10293C0004221A777B681B68DB6903F00303002B06
:10294C0003D0786800F04CF905E0786800F03FF9A6
:10295C00786800F04EF97B6800221A77BB6803F0A8
:10296C001003002B20D0FB6803F01003002B1BD0AE
:10297C007B681B686FF010021A617B6808221A775B
:10298C007B681B68DB6903F44073002B03D0786809
:10299C0000F026F905E0786800F019F9786800F085
:1029AC0028F97B6800221A77BB6803F00103002B1F
:1029BC000CD0FB6803F00103002B07D07B681B686D
:1029CC006FF001021A617868FEF76EFDBB6803F0C8
:1029DC008003002B0CD0FB6803F08003002B07D086
:1029EC007B681B686FF080021A61786800F06FFAE0
:1029FC00BB6803F04003002B0CD0FB6803F04003D2
:102A0C00002B07D07B681B686FF040021A61786856
:102A1C0000F0F8F8BB6803F02003002B0CD0FB6827
:102A2C0003F02003002B07D07B681B686FF020029B
:102A3C001A61786800F042FA00BF1037BD4680BDBD
:102A4C0080B584B000AF786039600023FB737B687D
:102A5C0093F83C30012B01D10223B4E07B680122B6
:102A6C0083F83C207B68022283F83D207B681B683E
:102A7C009B68BB60BB6823F07703BB60BB6823F427
:102A8C007F43BB607B681B68BA689A603B681B68B5
:102A9C00B3F5005F3ED0B3F5005F00F28780B3F56D
:102AAC00805F00F08680B3F5805F7FD8702B1AD0E2
:102ABC00702B7BD8602B50D0602B77D8502B3CD010
:102ACC00502B73D8402B58D0402B6FD8302B64D060
:102ADC00302B6BD8202B60D0202B67D8002B5CD0F0
:102AEC00102B5AD062E07B6818683B6899683B6889
:102AFC005A683B68DB6800F06AF97B681B689B6866
:102B0C00BB60BB6843F07703BB607B681B68BA682B
:102B1C009A604FE07B6818683B6899683B685A6814
:102B2C003B68DB6800F053F97B681B689A687B682C
:102B3C001B6842F480429A603CE07B6818683B68F2
:102B4C0059683B68DB681A4600F0CAF87B681B685A
:102B5C005021184600F021F92CE07B6818683B687E
:102B6C0059683B68DB681A4600F0E8F87B681B681C
:102B7C006021184600F011F91CE07B6818683B686E
:102B8C0059683B68DB681A4600F0AAF87B681B683A
:102B9C004021184600F001F90CE07B681A683B688C
:102BAC001B681946104600F0F8F803E00123FB738C
:102BBC0000E000BF7B68012283F83D207B68002287
:102BCC0083F83C20FB7B18461037BD4680BD80B493
:102BDC0083B000AF786000BF0C37BD4680BC704737
:102BEC0080B483B000AF786000BF0C37BD4680BCAA
:102BFC00704780B483B000AF786000BF0C37BD461F
:102C0C0080BC704780B483B000AF786000BF0C37D5
:102C1C00BD4680BC7047000080B485B000AF7860C2
:102C2C0039607B681B68FB607B682B4A934207D03A
:102C3C007B68B3F1804F03D07B68284A934208D15C
:102C4C00FB6823F07003FB603B685B68FA68134316
:102C5C00FB607B68204A934207D07B68B3F1804FBE
:102C6C0003D07B681D4A934208D1FB6823F4407360
:102C7C00FB603B68DB68FA681343FB60FB6823F07E
:102C8C0080023B685B691343FB607B68FA681A60DF
:102C9C003B689A687B68DA623B681A687B689A6260
:102CAC007B680D4A934203D13B681A697B681A63AF
:102CBC007B6801225A617B681B6903F00103002BBE
:102CCC0005D07B681B6923F001027B681A6100BF89
:102CDC001437BD4680BC7047002C014000040040F6
:102CEC0080B487B000AFF860B9607A60FB681B6A8B
:102CFC007B61FB681B6A23F00102FB681A62FB68AC
:102D0C009B693B613B6923F0F0033B617B681B01D2
:102D1C003A6913433B617B6923F00A037B617A694F
:102D2C00BB6813437B61FB683A699A61FB687A69FB
:102D3C001A6200BF1C37BD4680BC704780B487B098
:102D4C0000AFF860B9607A60FB681B6A7B61FB6856
:102D5C001B6A23F01002FB681A62FB689B693B61DB
:102D6C003B6923F470433B617B681B033A69134353
:102D7C003B617B6923F0A0037B61BB681B017A6913
:102D8C0013437B61FB683A699A61FB687A691A6242
:102D9C0000BF1C37BD4680BC704780B485B000AF07
:102DAC00786039607B689B68FB60FB6823F070037C
:102DBC00FB603A68FB68134343F00703FB607B68D6
:102DCC00FA689A6000BF1437BD4680BC704780B467
:102DDC0087B000AFF860B9607A603B60FB689B68B5
:102DEC007B617B6923F47F437B613B681A027B68C0
:102DFC001A43BB6813437A6913437B61FB687A6996
:102E0C009A6000BF1C37BD4680BC704780B485B04B
:102E1C0000AF786039607B6893F83C30012B01D1AE
:102E2C00022341E07B68012283F83C207B6802226C
:102E3C0083F83D207B681B685B68FB607B681B68C4
:102E4C009B68BB60FB6823F07003FB603B681B68EE
:102E5C00FA681343FB607B681B68FA685A607B68EE
:102E6C001B68144A934209D07B681B68B3F1804FEE
:102E7C0004D07B681B68104A93420CD1BB6823F0CA
:102E8C008003BB603B685B68BA681343BB607B68BC
:102E9C001B68BA689A607B68012283F83D207B68C6
:102EAC00002283F83C20002318461437BD4680BC12
:102EBC00704700BF002C01400004004080B483B078
:102ECC0000AF786000BF0C37BD4680BC704780B443
:102EDC0083B000AF786000BF0C37BD4680BC704734
:102EEC0070B500260C4D0D4C641BA410A64209D1E4
:102EFC0000F022F800260A4D0A4C641BA410A642CE
:102F0C0005D170BD55F8043B98470136EEE755F8EE
:102F1C00043B98470136F2E7802F0008802F000809
:102F2C00802F0008842F000803460244934200D1EE
:102F3C00704703F8011BF9E7F8B500BFF8BC08BCF3
:102F4C009E467047F8B500BFF8BC08BC9E4670475B
:102F5C00000000000000000001020304060708093D
:102F6C0002030405060708090A0B0C0D0E0F1010BE
:042F7C00010200004E
:042F80003101000813
:042F84000D01000833
:102F8800050000000300000002000000050000002A
:102F9800030000000200000005000000030000001C
:102FA800020000000500000003000000020000000D
:102FB8003F0006005B004F0066006D007D000700C3
:102FC8007F006F0000127A0010000000010000006E
:04000005080018FDDA
:00000001FF
