:020000040800F2
:1000000000280020ED1200080D1000081310000851
:10001000191000081F10000825100008000000003B
:100020000000000000000000000000002B1000088D
:100030003710000800000000431000084F100008AF
:100040003513000835130008351300083513000870
:100050003513000835130008351300083513000860
:100060003513000835130008351300083513000850
:100070003513000835130008351300083513000840
:100080003513000835130008351300083513000830
:100090003513000835130008351300083513000820
:1000A0003513000835130008351300083513000810
:1000B0005D1000083513000800000000351300082B
:1000C0003513000800000000000000003513000890
:1000D0000000000035130008351300080000000080
:1000E0003513000835130008351300080000000020
:1000F0000000000000000000000000000000000000
:0C01000000000000000000005FF808F1A3
:10010C0010B5054C237833B9044B13B10448AFF345
:10011C0000800123237010BD44000020000000006B
:10012C006429000808B5034B1BB103490348AFF31E
:10013C00008008BD00000000480000206429000871
:10014C0080B500AFAC4B1B68013B042B00F2C9819E
:10015C0001A252F823F000BF79010008DF0100086A
:10016C00930200084F03000835040008A24B02223A
:10017C001A60A24B1B684FF47A7202FB03F3184609
:10018C0000F076FF9E4B1B689E4A13609B4B1B68CE
:10019C009D4A13609A4B1B689C4A13609C4B1B68CE
:1001AC009C4A1360954B1B689B4A13604FF47A7002
:1001BC0000F07AFF934B1B685A1E92490A60924AD0
:1001CC001268511E904801601146184600F060FC00
:1001DC0090E100F0F5FF01F06BF8904B1B68012BE0
:1001EC0021D1854B03221A60894B1B684FF47A721C
:1001FC0002FB03F3184600F03BFF854B1B68884A53
:10020C001360804B1B685A1E7E490A60844A126830
:10021C00511E834801601146184600F039FC4FF41A
:10022C007A7000F041FF7F4B1B68012B11D1754B8D
:10023C001B685A1E73490A60734A1268511E724831
:10024C0001601146184600F023FC4FF47A7000F060
:10025C002BFF002000F0C0FB0346012B05D1FA2038
:10026C0000F006FF644B0B221A60002000F0D2FB5A
:10027C000346012B40F03781FA2000F0F9FE5E4B6B
:10028C000B221A602FE100F09BFF00F0F9FF634B8B
:10029C001B68012B25D1584B04221A60574B1B6845
:1002AC004FF47A7202FB03F3184600F0E1FE534B55
:1002BC001B68554A1360524B1B68524A1360524BD1
:1002CC001B685A1E50490A604E4A1268511E4D480E
:1002DC0001601146184600F0DBFB4FF47A7000F019
:1002EC00E3FE504B1B68012B11D1464B1B685A1E69
:1002FC0044490A604A4A1268511E49480160114635
:10030C00184600F0C5FB4FF47A7000F0CDFE0020CB
:10031C0000F062FB0346012B05D1FA2000F0A8FE89
:10032C00354B0B221A60002000F074FB0346012BA6
:10033C0040F0DB80FA2000F09BFE2F4B0B221A6062
:10034C00D3E000F06DFF00F083FF344B1B68012BF2
:10035C0021D1294B05221A602D4B1B684FF47A7260
:10036C0002FB03F3184600F083FE294B1B682C4A52
:10037C0013602B4B1B685A1E29490A60214A1268CC
:10038C00511E204801601146184600F081FB4FF4C5
:10039C007A7000F089FE234B1B68012B11D11A4B8C
:1003AC001B685A1E18490A60164A1268511E1548D5
:1003BC0001601146184600F06BFB4FF47A7000F0A8
:1003CC0073FE002000F008FB0346012B06D1FA2037
:1003DC0000F04EFE084B0B221A6088E0002000F063
:1003EC0019FB0346012B40F08280FA2000F040FEFE
:1003FC00014B0B221A607AE06000002010000020F4
:10040C000C00002000000020040000201800002038
:10041C0014000020200000201C0000209800002068
:10042C0008000020A000002000F0E2FE00F010FF09
:10043C00314B1B68012B25D1304B02221A60304BFB
:10044C001B684FF47A7202FB03F3184600F010FE9F
:10045C002C4B1B682C4A1360294B1B682B4A1360CE
:10046C00294B1B685A1E28490A60284A1268511EDB
:10047C00264801601146184600F00AFB4FF47A70CA
:10048C0000F012FE224B1B68012B11D1214B1B6873
:10049C005A1E20490A601C4A1268511E1A480160F3
:1004AC001146184600F0F4FA4FF47A7000F0FCFD97
:1004BC00002000F091FA0346012B05D1FA2000F040
:1004CC00D7FD0E4B0B221A60002000F0A3FA034656
:1004DC00012B0ED1FA2000F0CBFD084B0B221A6039
:1004EC0007E000BF06E000BF04E000BF02E000BF71
:1004FC0000E000BF00BF80BD98000020600000201D
:10050C00100000200C00002000000020040000203F
:10051C00A00000200800002080B500AF914B1B68A4
:10052C000A3B032B00F28F8101A252F823F000BF8B
:10053C004D050008A3050008890600089907000866
:10054C00894B1B684FF47A7202FB03F3184600F0D8
:10055C008FFD4FF47A7000F0A7FD844B1B68844A22
:10056C001360814B1B68834A1360834B1B68834A5F
:10057C0013607F4B1B685A1E7D490A607D4A1268C6
:10058C00511E7C4801601146184600F081FA754BEB
:10059C0002221A6058E100F013FE00F059FE002010
:1005AC0000F01AFA0346012B07D16E4B0C221A608D
:1005BC004FF4FA7000F05CFD0CE0002000F02AFA19
:1005CC000346012B06D1674B0C221A604FF4FA70CC
:1005DC0000F04EFD6A4B1B68012B0DD14FF4FA70E5
:1005EC0000F046FD4FF48071664801F0B8F94FF405
:1005FC000061644801F0B3F9012000F0EDF9034605
:10060C00012B12D1604B1B6801335F4A13605E4BA8
:10061C001B68632B02DD5C4B01221A605A4B1B6872
:10062C001946022000F034FA17E0012000F0F2F92C
:10063C000346012B11D1544B1B680133524A1360F2
:10064C00514B1B68632B02DD4F4B01221A604E4B42
:10065C001B681946022000F01BFA022000F0BCF9BE
:10066C000346012B03D1484B1B68404A13603F4B98
:10067C001B681946022000F00BFAE5E000F0B8FD0B
:10068C0000F0FEFD002000F0A7F90346012B07D176
:10069C00344B0D221A604FF4FA7000F0E9FC0CE0B8
:1006AC00012000F0B7F90346012B06D12D4B0A228D
:1006BC001A604FF4FA7000F0DBFC314B1B68012B15
:1006CC000DD14FF400712F4801F049F94FF48051CE
:1006DC002C4801F044F94FF4FA7000F0C9FC0120E9
:1006EC0000F07AF90346012B12D1244B1B6801331D
:1006FC00224A1360214B1B68632B02DD1F4B012226
:10070C001A601E4B1B681946032000F0C1F917E054
:10071C00012000F07FF90346012B11D1174B1B6808
:10072C000133164A1360154B1B68632B02DD134B08
:10073C0001221A60114B1B681946032000F0A8F91E
:10074C00022000F049F90346012B03D10B4B1B6827
:10075C00094A1360084B1B681946032000F098F9EE
:10076C0072E000BF60000020100000200C00002090
:10077C0000000020040000201400002020000020B5
:10078C0098000020000C014018000020002000F010
:10079C0023F90346012B02D12C4B0A221A600020AC
:1007AC0000F038F90346012B02D1284B0A221A60BB
:1007BC0000F036FD00F07CFD254B1B68012B0DD1A4
:1007CC004FF48061234801F0CAF84FF400512148DE
:1007DC0001F0C5F84FF4FA7000F04AFC012000F06B
:1007EC00FBF80346012B0BD11B4B1B6801331A4A38
:1007FC001360194B1B68632B02DD174B01221A6027
:10080C00012000F007F90346012B0BD1124B1B689A
:10081C000133114A1360104B1B68632B02DD0E4B26
:10082C0001221A60022000F0D7F80346012B03D1F5
:10083C00094B1B68094A1360084B1B6819460420B6
:10084C0000F026F900E000BF00BF80BD6000002072
:10085C0098000020000C01401C000020100000201B
:10086C0080B582B000AF00237B609DE0534A7B686B
:10087C0013441978524A7B6813440A461A707B68F1
:10088C00022B21D07B68022B2ADC7B68002B03D047
:10089C007B68012B0CD023E002214A4801F030F890
:1008AC0003461946454A7B6813440A461A7018E0F9
:1008BC000421444801F024F8034619463F4A7B685A
:1008CC0013440A461A700CE008213E4801F018F84F
:1008DC0003461946394A7B6813440A461A7000E0ED
:1008EC0000BF364A7B6813441A7835497B680B4441
:1008FC001B789A4255D1314A7B6813441978324A95
:10090C007B6813440A461A702F4A7B6813441B7881
:10091C00002B2BD12D4A7B6832F81330632B1AD85D
:10092C002A4A7B6832F81330013399B2274A7B6824
:10093C0022F81310254A7B6832F81330642B30D11F
:10094C00234A7B68134401221A70224A7B681344A1
:10095C0000221A7025E01F4A7B68134401221A708A
:10096C001B4A7B68134400221A701AE0174A7B68F2
:10097C0032F81330002B0AD0144A7B6832F813304B
:10098C00312B04D8134A7B68134401221A700F4A86
:10099C007B68002122F813100D4A7B681344002257
:1009AC001A707B6801337B607B68022B7FF75EAF2C
:1009BC0000BF00BF0837BD4680BD00BF68000020E7
:1009CC006C0000200008014064000020780000202A
:1009DC00700000207400002080B483B000AF034688
:1009EC00FB71FB79022B01D900230BE0FB79084A40
:1009FC00D35C012B05D1FB79054A0021D15401238D
:100A0C0000E0002318460C37BD4680BC704700BF81
:100A1C007400002080B483B000AF0346FB71FB79F7
:100A2C00022B01D900230BE0FB79084AD35C012B84
:100A3C0005D1FB79054A0021D154012300E00023A4
:100A4C0018460C37BD4680BC704700BF70000020B4
:100A5C0080B584B000AF78600B4A7B6832F81330F5
:100A6C00FB81FB8900221946084800F060FFFB89D6
:100A7C00DB439BB201221946044800F058FF00BF2B
:100A8C001037BD4680BD00BF24000020000C014083
:100A9C0080B483B000AF786039607B68184A82FB01
:100AAC0003129210DB17D31A164A13607968144B91
:100ABC0083FB01239A10CB17D21A13469B001344C5
:100ACC005B00CA1A0F4B5A603B680D4A82FB03123B
:100ADC009210DB17D31A0B4A93603968084B83FBCF
:100AEC0001239A10CB17D21A13469B0013445B00B8
:100AFC00CA1A044BDA6000BF0C37BD4680BC704785
:100B0C00676666668000002080B582B000AF7860B2
:100B1C007B68032B50D801A252F823F0390B000844
:100B2C005B0B00087D0B0008A10B00080022402184
:100B3C00244800F0FCFE01224FF46071214800F0C3
:100B4C00F6FE214B1B681846FFF782FF35E00022AA
:100B5C0080211C4800F0EBFE01224FF45071194823
:100B6C0000F0E5FE184B5B681846FFF771FF24E0B8
:100B7C0000224FF48071134800F0D9FE01224FF48B
:100B8C003071104800F0D3FE0F4B9B681846FFF7EE
:100B9C005FFF12E000224FF400710A4800F0C7FE1C
:100BAC0001224FF4E071074800F0C1FE064BDB68F0
:100BBC001846FFF74DFF00E000BF00BF0837BD46E9
:100BCC0080BD00BF000801408000002080B500AF50
:100BDC00504B1B68012B40F09B800220FFF7FCFE62
:100BEC000346012B1DD14C4B1A684C4B1B689A4287
:100BFC0003D04A4B1B68484A1360494B1A68494B4F
:100C0C001B689A4203D0474B1B68454A1360464BFE
:100C1C001A68464B1B689A4203D0444B1B683E4AE9
:100C2C0013600120FFF7D8FE0346012B05D00220EC
:100C3C00FFF7F0FE0346012B3AD13C4B1A68394BB7
:100C4C001B681A44354B1B689A4231D0334B1A68D7
:100C5C00364B1968334B1B680B44D31A002B0BDD36
:100C6C00304B1B6801332F4A13602C4B1A682D4BE9
:100C7C001B68D31A2D4A1360284B1A682B4B196822
:100C8C00284B1B680B44D31A002B11DA274B1A681C
:100C9C00244B1B681A44214B1B689A4208DD214BDC
:100CAC0002221A60214B03221A601C4B05221A6087
:100CBC001F4B1B680B2B05D1174B1B6819460220C9
:100CCC00FFF7E6FE1A4B1B680C2B05D1144B1B6867
:100CDC0019460320FFF7DCFE154B1B680D2B05D1C5
:100CEC00114B1B6819460420FFF7D2FE114B1B68F1
:100CFC005A1C10490A601846FFF706FF0D4B1B687B
:100D0C00032B02DD0B4B00221A60FA2000F0E8F9ED
:100D1C0000BF80BDA8000020180000200C0000209F
:100D2C0020000020140000201C00002010000020D7
:100D3C00600000209000002080B500AF00F0F6FAB3
:100D4C0000F018F800F09EF800F050F8074801F099
:100D5C004BFA074B01221A60642000F0C1F9FFF72F
:100D6C00EFF9FFF7D9FBFFF731FFF8E7AC000020F4
:100D7C006000002080B590B000AF07F11803282266
:100D8C000021184601F0E0FD3B1D00221A605A605C
:100D9C009A60DA601A610223BB610123BB621023E3
:100DAC00FB6200237B6307F11803184600F0F0FD8B
:100DBC000346002B01D000F0C7F80F237B60002303
:100DCC00BB600023FB6000233B6100237B613B1D68
:100DDC000021184601F05CF80346002B01D000F00E
:100DEC00B3F800BF4037BD4680BD000080B586B06B
:100DFC0000AF07F1080300221A605A609A60DA60AB
:100E0C003B4600221A605A601D4B4FF080421A601C
:100E1C001B4B41F63F725A60194B00229A60184BDB
:100E2C000922DA60164B00221A61154B00229A61D6
:100E3C00134801F089F90346002B01D000F084F827
:100E4C004FF48053BB6007F1080319460C4801F0BE
:100E5C0007FB0346002B01D000F076F800233B6023
:100E6C0000237B603B461946054801F0DFFC034636
:100E7C00002B01D000F068F800BF1837BD4680BDCC
:100E8C00AC00002080B586B000AF07F1080300224B
:100E9C001A605A609A60DA60284B9B69274A43F0C3
:100EAC0004039361254B9B6903F004037B607B680F
:100EBC00224B9B69214A43F0080393611F4B9B69AA
:100ECC0003F008033B603B6800224FF470711C4830
:100EDC0000F02DFD002243F67F711A4800F027FD2B
:100EEC000E23BB600023FB6000233B6107F108036A
:100EFC001946134800F08AFB4FF47073BB60012352
:100F0C00FB6000233B6102237B6107F10803194658
:100F1C000B4800F07BFB43F67F73BB600123FB6047
:100F2C0000233B6102237B6107F108031946054846
:100F3C0000F06CFB00BF1837BD4680BD00100240AE
:100F4C0000080140000C014080B400AF72B600BF35
:100F5C00FEE7000080B485B000AF154B9B69144AC6
:100F6C0043F001039361124B9B6903F00103BB60D7
:100F7C00BB680F4BDB690E4A43F08053D3610C4BBB
:100F8C00DB6903F080537B607B680A4B5B68FB601A
:100F9C00FB6823F0E063FB60FB6843F00073FB60CD
:100FAC00044AFB68536000BF1437BD4680BC7047D1
:100FBC00001002400000014080B584B000AF7860A2
:100FCC007B681B68B3F1804F13D10C4BDB690B4A68
:100FDC0043F00103D361094BDB6903F00103FB60B0
:100FEC00FB68002200211C2000F0D9FA1C2000F024
:100FFC00F2FA00BF1037BD4680BD00BF00100240A2
:10100C0080B400AFFEE780B400AFFEE780B400AF61
:10101C00FEE780B400AFFEE780B400AFFEE780B41B
:10102C0000AF00BFBD4680BC704780B400AF00BFAE
:10103C00BD4680BC704780B400AF00BFBD4680BCCD
:10104C00704780B500AF00F0B7F900BF80BD00005D
:10105C0080B500AF024801F013F900BF80BD00BF9E
:10106C00AC00002080B400AF00BFBD4680BC704710
:10107C0080B483B000AF78607B68084A82FB0312AF
:10108C009210DB17D31A064A1360064B00221A6023
:10109C0000BF0C37BD4680BC704700BF67666666F4
:1010AC00940000209800002080B483B000AF7860DA
:1010BC007B68084A82FB03129210DB17D31A064A8C
:1010CC001360064B00221A6000BF0C37BD4680BC73
:1010DC00704700BF676666669C000020A000002079
:1010EC0080B483B000AF78607B68084A82FB03123F
:1010FC009210DB17D31A064A1360064B00221A60B3
:10110C0000BF0C37BD4680BC704700BF6766666683
:10111C00A4000020A800002080B400AF194B1B686D
:10112C00002B0BDD174B1B68013B164A1360154B4C
:10113C001B68002B02DC144B01221A60134B1B683A
:10114C00002B0BDD114B1B68013B104A13600F4B3E
:10115C001B68002B02DC0E4B01221A600D4B1B6826
:10116C00002B0BDD0B4B1B68013B0A4A1360094B30
:10117C001B68002B02DC084B01221A6000BFBD4625
:10118C0080BC704794000020980000209C00002038
:10119C00A0000020A4000020A800002080B582B090
:1011AC0000AF78607B681B68B3F1804F01D1FFF70B
:1011BC0057FBFFF7B1FF00BF0837BD4680BD0000ED
:1011CC0080B500AF01224FF48071084800F0AFFBEE
:1011DC0000224FF40071054800F0A9FB00224FF4E7
:1011EC008061024800F0A3FB00BF80BD000C0140F1
:1011FC0080B500AF00224FF48071084800F097FBD7
:10120C0001224FF40071054800F091FB00224FF4CD
:10121C008061024800F08BFB00BF80BD000C0140D8
:10122C0080B500AF00224FF48071084800F07FFBBE
:10123C0000224FF40071054800F079FB01224FF4B5
:10124C008061024800F073FB00BF80BD000C0140C0
:10125C0080B500AF01224FF40061084800F067FB35
:10126C0000224FF48051054800F061FB00224FF43E
:10127C000051024800F05BFB00BF80BD000C014038
:10128C0080B500AF00224FF40061084800F04FFB1E
:10129C0001224FF48051054800F049FB00224FF425
:1012AC000051024800F043FB00BF80BD000C014020
:1012BC0080B500AF00224FF40061084800F037FB06
:1012CC0000224FF48051054800F031FB01224FF40D
:1012DC000051024800F02BFB00BF80BD000C014008
:1012EC00FFF7C0FE0B480C490C4A002302E0D4580F
:1012FC00C4500433C4188C42F9D3094A094C002356
:10130C0001E013600432A242FBD301F0F9FAFFF7BB
:10131C0013FD70470000002044000020A82900089D
:10132C0044000020F8000020FEE7000080B500AF6C
:10133C00084B1B68074A43F010031360032000F0AE
:10134C0023F90F2000F008F8FFF704FE00231846DD
:10135C0080BD00BF0020024080B582B000AF786035
:10136C00124B1A68124B1B7819464FF47A73B3FB65
:10137C00F1F3B2FBF3F3184600F03BF90346002BF4
:10138C0001D001230EE07B680F2B0AD8002279686C
:10139C004FF0FF3000F003F9064A7B68136000231E
:1013AC0000E0012318460837BD4680BD38000020F8
:1013BC00400000203C00002080B400AF054B1B789F
:1013CC001A46054B1B681344034A136000BFBD4605
:1013DC0080BC704740000020F400002080B400AFB7
:1013EC00024B1B681846BD4680BC7047F4000020B9
:1013FC0080B485B000AF78607B6803F00703FB60B6
:10140C000C4BDB68BB60BA684FF6FF031340BB6044
:10141C00FB681A02BB68134343F0BF6343F4003309
:10142C00BB60044ABB68D36000BF1437BD4680BCA8
:10143C00704700BF00ED00E080B400AF044BDB68E8
:10144C001B0A03F007031846BD4680BC704700BF5B
:10145C0000ED00E080B483B000AF0346FB7197F958
:10146C000730002B0BDBFB7903F01F02064997F9C1
:10147C0007305B09012000FA02F241F8232000BF7B
:10148C000C37BD4680BC704700E100E080B483B0EF
:10149C0000AF03463960FB7197F90730002B0ADB6C
:1014AC003B68DAB20C4997F907301201D2B20B44FF
:1014BC0083F800230AE03B68DAB20849FB7903F0B1
:1014CC000F03043B1201D2B20B441A7600BF0C3747
:1014DC00BD4680BC704700BF00E100E000ED00E0BD
:1014EC0080B489B000AFF860B9607A60FB6803F033
:1014FC000703FB61FB69C3F10703042B28BF04231B
:10150C00BB61FB690433062B02D9FB69033B00E08A
:10151C0000237B614FF0FF32BB6902FA03F3DA431D
:10152C00BB681A407B699A404FF0FF317B6901FA26
:10153C0003F3D9437B680B40134318462437BD464D
:10154C0080BC704780B582B000AF78607B68013B8F
:10155C00B3F1807F01D301230FE00A4A7B68013B82
:10156C0053600F214FF0FF30FFF790FF054B002227
:10157C009A60044B07221A60002318460837BD46B0
:10158C0080BD00BF10E000E080B582B000AF786095
:10159C007868FFF72DFF00BF0837BD4680BD80B5CA
:1015AC0086B000AF0346B9607A60FB7300237B61A1
:1015BC00FFF742FF78617A68B9687869FFF790FFA6
:1015CC00024697F90F3011461846FFF75FFF00BF30
:1015DC001837BD4680BD80B582B000AF0346FB71A5
:1015EC0097F907301846FFF735FF00BF0837BD469F
:1015FC0080BD80B582B000AF78607868FFF7A2FF3D
:10160C00034618460837BD4680BD000080B48BB039
:10161C0000AF7860396000237B6200233B6248E1B5
:10162C0001227B6A02FA03F3FB613B681B68FA69CF
:10163C001340BB61BA69FB699A4240F037813B6841
:10164C005B68A34A93425ED0A14A934275D8A14AE3
:10165C00934258D09F4A93426FD89F4A934252D09C
:10166C009D4A934269D89D4A93424CD09B4A9342DF
:10167C0063D89B4A934246D0994A93425DD8122B29
:10168C002AD8122B59D801A252F823F013170008AC
:10169C00ED160008FF160008411700084717000850
:1016AC004717000847170008471700084717000896
:1016BC004717000847170008471700084717000886
:1016CC004717000847170008471700084717000876
:1016DC00F516000809170008824A934213D02CE033
:1016EC003B68DB683B6229E03B68DB6804333B62A8
:1016FC0024E03B68DB6808333B621FE03B68DB6837
:10170C000C333B621AE03B689B68002B02D104232C
:10171C003B6213E03B689B68012B05D108233B62BD
:10172C007B68FA691A6109E008233B627B68FA69F5
:10173C005A6103E000233B6200E000BFBB69FF2B52
:10174C0001D87B6801E07B6804337B61BB69FF2BAC
:10175C0002D87B6A9B0002E07B6A083B9B003B61E2
:10176C007B691A680F213B6901FA03F3DB431A40CA
:10177C00396A3B6901FA03F31A437B691A603B68C7
:10178C005B6803F08053002B00F09080564B9B69F4
:10179C00554A43F001039361534B9B6903F00103DA
:1017AC00BB60BB68514A7B6A9B08023352F82330FA
:1017BC00FB607B6A03F003039B000F2202FA03F326
:1017CC00DB43FA681340FB607B68494A93420DD0B7
:1017DC007B68484A934207D07B68474A934201D1C1
:1017EC00022304E0032302E0012300E000237A6AD1
:1017FC0002F0030292009340FA681343FB603B49EA
:10180C007B6A9B080233FA6841F823203B685B68CB
:10181C0003F48013002B06D0384B9A683749BB6908
:10182C0013438B6006E0354B9A68BB69DB43334945
:10183C0013408B603B685B6803F40013002B06D0ED
:10184C002E4BDA682D49BB691343CB6006E02B4B5A
:10185C00DA68BB69DB4329491340CB603B685B68A2
:10186C0003F40033002B06D0244B5A682349BB6980
:10187C0013434B6006E0214B5A68BB69DB431F499D
:10188C0013404B603B685B6803F48033002B06D03D
:10189C001A4B1A681949BB6913430B6006E0174BC6
:1018AC001A68BB69DB43154913400B607B6A013333
:1018BC007B623B681A687B6A22FA03F3002B7FF485
:1018CC00AFAE00BF00BF2C37BD4680BC704700BF19
:1018DC000000321000003110000022100000211016
:1018EC000000121000001110001002400000014016
:1018FC0000080140000C01400010014000040140B0
:10190C0080B485B000AF78600B467B807B689A68AA
:10191C007B881340002B02D00123FB7301E00023D2
:10192C00FB73FB7B18461437BD4680BC704780B4F4
:10193C0083B000AF78600B467B8013467B707B785E
:10194C00002B03D07A887B681A6103E07B881A0429
:10195C007B681A6100BF0C37BD4680BC704780B4F1
:10196C0085B000AF78600B467B807B68DB68FB60E2
:10197C007A88FB6813401A04FB68D9437B880B40B8
:10198C001A437B681A6100BF1437BD4680BC704790
:10199C0080B586B000AF78607B68002B01D1012345
:1019AC006CE27B681B6803F00103002B00F087805E
:1019BC00924B5B6803F00C03042B0CD08F4B5B68D1
:1019CC0003F00C03082B12D18C4B5B6803F48033AF
:1019DC00B3F5803F0BD1894B1B6803F40033002B0C
:1019EC006CD07B685B68002B68D1012346E27B6876
:1019FC005B68B3F5803F06D1804B1B687F4A43F48C
:101A0C00803313602EE07B685B68002B0CD17B4B22
:101A1C001B687A4A23F480331360784B1B68774A2F
:101A2C0023F4802313601DE07B685B68B3F5A02F63
:101A3C000CD1724B1B68714A43F4802313606F4BBB
:101A4C001B686E4A43F4803313600BE06B4B1B68CE
:101A5C006A4A23F480331360684B1B68674A23F48B
:101A6C00802313607B685B68002B13D0FFF7B6FCF8
:101A7C00386108E0FFF7B2FC02463B69D31A642BCD
:101A8C0001D90323FAE15D4B1B6803F40033002BEF
:101A9C00F0D014E0FFF7A2FC386108E0FFF79EFCE1
:101AAC0002463B69D31A642B01D90323E6E1534B5D
:101ABC001B6803F40033002BF0D100E000BF7B68FF
:101ACC001B6803F00203002B63D04C4B5B6803F0E4
:101ADC000C03002B0BD0494B5B6803F00C03082B59
:101AEC001CD1464B5B6803F48033002B16D1434B5F
:101AFC001B6803F00203002B05D07B681B69012BCC
:101B0C0001D00123BAE13D4B1B6823F0F8027B683E
:101B1C005B69DB00394913430B603AE07B681B6956
:101B2C00002B20D0364B01221A60FFF757FC38618E
:101B3C0008E0FFF753FC02463B69D31A022B01D98C
:101B4C0003239BE12D4B1B6803F00203002BF0D009
:101B5C002A4B1B6823F0F8027B685B69DB00274982
:101B6C0013430B6015E0264B00221A60FFF736FC7E
:101B7C00386108E0FFF732FC02463B69D31A022BAE
:101B8C0001D903237AE11D4B1B6803F00203002BE0
:101B9C00F0D17B681B6803F00803002B3AD07B68FC
:101BAC009B69002B19D0174B01221A60FFF716FC0A
:101BBC00386108E0FFF712FC02463B69D31A022B8E
:101BCC0001D903235AE10D4B5B6A03F00203002B8E
:101BDC00F0D0012000F09AFA1CE00A4B00221A60A7
:101BEC00FFF7FCFB38610FE0FFF7F8FB02463B699F
:101BFC00D31A022B08D9032340E100BF0010024086
:101C0C0000004242800442429E4B5B6A03F0020396
:101C1C00002BE9D17B681B6803F00403002B00F058
:101C2C00A6800023FB75974BDB6903F08053002BD8
:101C3C000DD1944BDB69934A43F08053D361914BA4
:101C4C00DB6903F08053BB60BB680123FB758E4BD3
:101C5C001B6803F48073002B18D18B4B1B688A4ACA
:101C6C0043F480731360FFF7B9FB386108E0FFF7AA
:101C7C00B5FB02463B69D31A642B01D90323FDE063
:101C8C00814B1B6803F48073002BF0D07B68DB68FE
:101C9C00012B06D17B4B1B6A7A4A43F0010313627A
:101CAC002DE07B68DB68002B0CD1764B1B6A754AE8
:101CBC0023F001031362734B1B6A724A23F0040373
:101CCC0013621CE07B68DB68052B0CD16D4B1B6A27
:101CDC006C4A43F0040313626A4B1B6A694A43F073
:101CEC00010313620BE0674B1B6A664A23F0010386
:101CFC001362644B1B6A634A23F0040313627B6810
:101D0C00DB68002B15D0FFF769FB38610AE0FFF7A1
:101D1C0065FB02463B69D31A41F28832934201D9E2
:101D2C000323ABE0574B1B6A03F00203002BEED0EE
:101D3C0014E0FFF753FB38610AE0FFF74FFB024654
:101D4C003B69D31A41F28832934201D9032395E0BF
:101D5C004C4B1B6A03F00203002BEED1FB7D012BD5
:101D6C0005D1484BDB69474A23F08053D3617B682C
:101D7C00DB69002B00F08180424B5B6803F00C03A5
:101D8C00082B61D07B68DB69022B46D13F4B0022CC
:101D9C001A60FFF723FB386108E0FFF71FFB0246D0
:101DAC003B69D31A022B01D9032367E0354B1B681F
:101DBC0003F00073002BF0D17B681B6AB3F5803FF6
:101DCC0008D1304B5B6823F400327B689B682D494B
:101DDC0013434B602B4B5B6823F474127B68196ABA
:101DEC007B685B6A0B43274913434B60274B0122EB
:101DFC001A60FFF7F3FA386108E0FFF7EFFA0246D2
:101E0C003B69D31A022B01D9032337E01D4B1B6806
:101E1C0003F00073002BF0D02FE01C4B00221A6053
:101E2C00FFF7DCFA386108E0FFF7D8FA02463B69A5
:101E3C00D31A022B01D9032320E0124B1B6803F0A9
:101E4C000073002BF0D118E07B68DB69012B01D10A
:101E5C00012313E00B4B5B68FB60FB6803F48032DF
:101E6C007B681B6A9A4206D1FB6803F470127B688C
:101E7C005B6A9A4201D0012300E000231846183710
:101E8C00BD4680BD00100240007000406000424220
:101E9C0080B584B000AF786039607B68002B01D1CD
:101EAC000123D0E06A4B1B6803F007033A689A429F
:101EBC0010D9674B1B6823F0070265493B68134335
:101ECC000B60634B1B6803F007033A689A4201D01E
:101EDC000123B8E07B681B6803F00203002B20D0C1
:101EEC007B681B6803F00403002B05D0594B5B681F
:101EFC00584A43F4E06353607B681B6803F00803A3
:101F0C00002B05D0534B5B68524A43F4605353602B
:101F1C00504B5B6823F0F0027B689B684D49134380
:101F2C004B607B681B6803F00103002B40D07B687F
:101F3C005B68012B07D1474B1B6803F40033002B64
:101F4C0015D101237FE07B685B68022B07D1414BE5
:101F5C001B6803F00073002B09D1012373E03D4B88
:101F6C001B6803F00203002B01D101236BE0394BFA
:101F7C005B6823F003027B685B68364913434B6054
:101F8C00FFF72CFAF8600AE0FFF728FA0246FB6824
:101F9C00D31A41F28832934201D9032353E02D4BDB
:101FAC005B6803F00C027B685B689B009A42EBD188
:101FBC00274B1B6803F007033A689A4210D2244B54
:101FCC001B6823F0070222493B6813430B60204B2C
:101FDC001B6803F007033A689A4201D0012332E0F0
:101FEC007B681B6803F00403002B08D0194B5B685B
:101FFC0023F4E0627B68DB68164913434B607B6813
:10200C001B6803F00803002B09D0124B5B6823F408
:10201C0060527B681B69DB000E4913434B6000F078
:10202C0021F802460B4B5B681B0903F00F030A49AE
:10203C00CB5C22FA03F3094A1360094B1B68184660
:10204C00FFF78AF9002318461037BD4680BD00BF44
:10205C0000200240001002407C29000838000020BB
:10206C003C00002080B487B000AF0023FB6000234D
:10207C00BB6000237B6100237B6000233B611E4B14
:10208C005B68FB60FB6803F00C03042B02D0082B8D
:10209C0003D027E0194B3B6127E0FB689B0C03F056
:1020AC000F03174AD35C7B60FB6803F48033002B6F
:1020BC0010D0114B5B685B0C03F00103114AD35C2D
:1020CC00BB607B680D4A02FB03F2BB68B2FBF3F307
:1020DC007B6104E07B680C4A02FB03F37B617B6948
:1020EC003B6102E0054B3B6100BF3B6918461C3766
:1020FC00BD4680BC704700BF0010024000127A0041
:10210C008C2900089C29000800093D0080B485B08A
:10211C0000AF78600A4B1B680A4AA2FB03235B0AD8
:10212C007A6802FB03F3FB6000BFFB685A1EFA607F
:10213C00002BF9D100BF00BF1437BD4680BC7047DF
:10214C0038000020D34D621080B582B000AF7860AB
:10215C007B68002B01D1012341E07B6893F83D3073
:10216C00DBB2002B06D17B68002283F83C20786818
:10217C00FEF722FF7B68022283F83D207B681A68F9
:10218C007B6804331946104600F056FA7B6801222E
:10219C0083F846207B68012283F83E207B6801226D
:1021AC0083F83F207B68012283F840207B68012262
:1021BC0083F841207B68012283F842207B6801224E
:1021CC0083F843207B68012283F844207B6801223A
:1021DC0083F845207B68012283F83D2000231846B4
:1021EC000837BD4680BD000080B485B000AF786074
:1021FC007B6893F83D30DBB2012B01D0012335E035
:10220C007B68022283F83D207B681B68DA687B6858
:10221C001B6842F00102DA607B681B68164A934225
:10222C0009D07B681B68B3F1804F04D07B681B68B6
:10223C00124A934211D17B681B689B6803F0070319
:10224C00FB60FB68062B10D07B681B681A687B68E8
:10225C001B6842F001021A6007E07B681B681A6871
:10226C007B681B6842F001021A6000231846143781
:10227C00BD4680BC704700BF002C014000040040EC
:10228C0080B584B000AF78607B681B68DB68FB604E
:10229C007B681B681B69BB60BB6803F00203002BE7
:1022AC0020D0FB6803F00203002B1BD07B681B685B
:1022BC006FF002021A617B6801221A777B681B6837
:1022CC009B6903F00303002B03D0786800F098F9A6
:1022DC0005E0786800F08BF9786800F09AF97B6873
:1022EC0000221A77BB6803F00403002B20D0FB6894
:1022FC0003F00403002B1BD07B681B686FF00402F7
:10230C001A617B6802221A777B681B689B6903F44D
:10231C004073002B03D0786800F072F905E0786800
:10232C0000F065F9786800F074F97B6800221A7780
:10233C00BB6803F00803002B20D0FB6803F00803F4
:10234C00002B1BD07B681B686FF008021A617B683E
:10235C0004221A777B681B68DB6903F00303002BEC
:10236C0003D0786800F04CF905E0786800F03FF98C
:10237C00786800F04EF97B6800221A77BB6803F08E
:10238C001003002B20D0FB6803F01003002B1BD094
:10239C007B681B686FF010021A617B6808221A7741
:1023AC007B681B68DB6903F44073002B03D07868EF
:1023BC0000F026F905E0786800F019F9786800F06B
:1023CC0028F97B6800221A77BB6803F00103002B05
:1023DC000CD0FB6803F00103002B07D07B681B6853
:1023EC006FF001021A617868FEF7D8FEBB6803F043
:1023FC008003002B0CD0FB6803F08003002B07D06C
:10240C007B681B686FF080021A61786800F06FFAC5
:10241C00BB6803F04003002B0CD0FB6803F04003B7
:10242C00002B07D07B681B686FF040021A6178683C
:10243C0000F0F8F8BB6803F02003002B0CD0FB680D
:10244C0003F02003002B07D07B681B686FF0200281
:10245C001A61786800F042FA00BF1037BD4680BDA3
:10246C0080B584B000AF786039600023FB737B6863
:10247C0093F83C30012B01D10223B4E07B6801229C
:10248C0083F83C207B68022283F83D207B681B6824
:10249C009B68BB60BB6823F07703BB60BB6823F40D
:1024AC007F43BB607B681B68BA689A603B681B689B
:1024BC00B3F5005F3ED0B3F5005F00F28780B3F553
:1024CC00805F00F08680B3F5805F7FD8702B1AD0C8
:1024DC00702B7BD8602B50D0602B77D8502B3CD0F6
:1024EC00502B73D8402B58D0402B6FD8302B64D046
:1024FC00302B6BD8202B60D0202B67D8002B5CD0D6
:10250C00102B5AD062E07B6818683B6899683B686E
:10251C005A683B68DB6800F06AF97B681B689B684B
:10252C00BB60BB6843F07703BB607B681B68BA6811
:10253C009A604FE07B6818683B6899683B685A68FA
:10254C003B68DB6800F053F97B681B689A687B6812
:10255C001B6842F480429A603CE07B6818683B68D8
:10256C0059683B68DB681A4600F0CAF87B681B6840
:10257C005021184600F021F92CE07B6818683B6864
:10258C0059683B68DB681A4600F0E8F87B681B6802
:10259C006021184600F011F91CE07B6818683B6854
:1025AC0059683B68DB681A4600F0AAF87B681B6820
:1025BC004021184600F001F90CE07B681A683B6872
:1025CC001B681946104600F0F8F803E00123FB7372
:1025DC0000E000BF7B68012283F83D207B6800226D
:1025EC0083F83C20FB7B18461037BD4680BD80B479
:1025FC0083B000AF786000BF0C37BD4680BC70471D
:10260C0080B483B000AF786000BF0C37BD4680BC8F
:10261C00704780B483B000AF786000BF0C37BD4604
:10262C0080BC704780B483B000AF786000BF0C37BB
:10263C00BD4680BC7047000080B485B000AF7860A8
:10264C0039607B681B68FB607B682B4A934207D020
:10265C007B68B3F1804F03D07B68284A934208D142
:10266C00FB6823F07003FB603B685B68FA681343FC
:10267C00FB607B68204A934207D07B68B3F1804FA4
:10268C0003D07B681D4A934208D1FB6823F4407346
:10269C00FB603B68DB68FA681343FB60FB6823F064
:1026AC0080023B685B691343FB607B68FA681A60C5
:1026BC003B689A687B68DA623B681A687B689A6246
:1026CC007B680D4A934203D13B681A697B681A6395
:1026DC007B6801225A617B681B6903F00103002BA4
:1026EC0005D07B681B6923F001027B681A6100BF6F
:1026FC001437BD4680BC7047002C014000040040DC
:10270C0080B487B000AFF860B9607A60FB681B6A70
:10271C007B61FB681B6A23F00102FB681A62FB6891
:10272C009B693B613B6923F0F0033B617B681B01B8
:10273C003A6913433B617B6923F00A037B617A6935
:10274C00BB6813437B61FB683A699A61FB687A69E1
:10275C001A6200BF1C37BD4680BC704780B487B07E
:10276C0000AFF860B9607A60FB681B6A7B61FB683C
:10277C001B6A23F01002FB681A62FB689B693B61C1
:10278C003B6923F470433B617B681B033A69134339
:10279C003B617B6923F0A0037B61BB681B017A69F9
:1027AC0013437B61FB683A699A61FB687A691A6228
:1027BC0000BF1C37BD4680BC704780B485B000AFED
:1027CC00786039607B689B68FB60FB6823F0700362
:1027DC00FB603A68FB68134343F00703FB607B68BC
:1027EC00FA689A6000BF1437BD4680BC704780B44D
:1027FC0087B000AFF860B9607A603B60FB689B689B
:10280C007B617B6923F47F437B613B681A027B68A5
:10281C001A43BB6813437A6913437B61FB687A697B
:10282C009A6000BF1C37BD4680BC704780B485B031
:10283C0000AF786039607B6893F83C30012B01D194
:10284C00022341E07B68012283F83C207B68022252
:10285C0083F83D207B681B685B68FB607B681B68AA
:10286C009B68BB60FB6823F07003FB603B681B68D4
:10287C00FA681343FB607B681B68FA685A607B68D4
:10288C001B68144A934209D07B681B68B3F1804FD4
:10289C0004D07B681B68104A93420CD1BB6823F0B0
:1028AC008003BB603B685B68BA681343BB607B68A2
:1028BC001B68BA689A607B68012283F83D207B68AC
:1028CC00002283F83C20002318461437BD4680BCF8
:1028DC00704700BF002C01400004004080B483B05E
:1028EC0000AF786000BF0C37BD4680BC704780B429
:1028FC0083B000AF786000BF0C37BD4680BC70471A
:10290C0070B500260C4D0D4C641BA410A64209D1C9
:10291C0000F022F800260A4D0A4C641BA410A642B3
:10292C0005D170BD55F8043B98470136EEE755F8D4
:10293C00043B98470136F2E7A0290008A0290008BB
:10294C00A0290008A429000803460244934200D1A0
:10295C00704703F8011BF9E7F8B500BFF8BC08BCD9
:10296C009E467047F8B500BFF8BC08BC9E46704741
:10297C000000000000000000010203040607080923
:10298C0002030405060708090A0B0C0D0E0F1010A4
:04299C000102000034
:0429A00031010008F9
:0429A4000D01000819
:1029A8000500000003000000020000000500000010
:1029B8000300000002000000050000000300000002
:1029C800020000003F0006005B004F0066006D003B
:1029D8007D0007007F006F0000127A0010000000E1
:0429E80001000000EA
:04000005080012EDF0
:00000001FF
