:020000040800F2
:1000000000280020250D0008C90C0008CF0C0008AE
:10001000D50C0008DB0C0008E10C00080000000013
:10002000000000000000000000000000E70C0008D5
:10003000F30C000800000000FF0C00080B0D000886
:100040006D0D00086D0D00086D0D00086D0D0008A8
:100050006D0D00086D0D00086D0D00086D0D000898
:100060006D0D00086D0D00086D0D00086D0D000888
:100070006D0D00086D0D00086D0D00086D0D000878
:100080006D0D00086D0D00086D0D00086D0D000868
:100090006D0D00086D0D00086D0D00086D0D000858
:1000A0006D0D00086D0D00086D0D00086D0D000848
:1000B0006D0D00086D0D0008000000006D0D0008BA
:1000C0006D0D000800000000000000006D0D00082C
:1000D000000000006D0D00086D0D0008000000001C
:1000E0006D0D00086D0D00086D0D0008000000008A
:1000F0000000000000000000000000000000000000
:0C01000000000000000000005FF808F1A3
:10010C0010B5054C237833B9044B13B10448AFF345
:10011C0000800123237010BD0C00002000000000A3
:10012C00781B000808B5034B1BB103490348AFF318
:10013C00008008BD0000000010000020781B0008A3
:10014C0080B582B000AF7860C7F800C07B68002B28
:10015C0023D100220121C24801F0E8F8002202213B
:10016C00BF4801F0E3F800220421BD4801F0DEF89D
:10017C0000220821BA4801F0D9F800221021B84811
:10018C0001F0D4F800222021B54801F0CFF801226B
:10019C004021B34801F0CAF85DE17B68012B23D103
:1001AC0001220121AE4801F0C1F800220221AC4825
:1001BC0001F0BCF800220421A94801F0B7F8012293
:1001CC000821A74801F0B2F801221021A44801F03F
:1001DC00ADF801222021A24801F0A8F8012240210B
:1001EC009F4801F0A3F836E17B68022B23D1002253
:1001FC0001219B4801F09AF800220221984801F055
:10020C0095F801220421964801F090F8002208216B
:10021C00934801F08BF800221021914801F086F8E8
:10022C00012220218E4801F081F8002240218C48C7
:10023C0001F07CF80FE17B68032B23D10022012114
:10024C00874801F073F800220221854801F06EF80E
:10025C0000220421824801F069F80022082180481C
:10026C0001F064F8012210217D4801F05FF80122B1
:10027C0020217B4801F05AF800224021784801F0F7
:10028C0055F8E8E07B68042B23D101220121744846
:10029C0001F04CF800220221714801F047F80022CD
:1002AC0004216F4801F042F8012208216C4801F04A
:1002BC003DF8012210216A4801F038F80022202173
:1002CC00674801F033F800224021654801F02EF810
:1002DC00C1E07B68052B23D100220121604801F08D
:1002EC0025F8012202215E4801F020F800220421A9
:1002FC005B4801F01BF800220821594801F016F860
:10030C0001221021564801F011F8002220215448F6
:10031C0001F00CF800224021514801F007F89AE056
:10032C007B68062B23D1002201214D4800F0FEFFF3
:10033C00012202214A4800F0F9FF0022042148481A
:10034C0000F0F4FF00220821454800F0EFFF0022E6
:10035C001021434800F0EAFF00222021404800F021
:10036C00E5FF002240213E4800F0E0FF73E07B688F
:10037C00072B23D100220121394800F0D7FF00229E
:10038C000221374800F0D2FF00220421344800F04B
:10039C00CDFF01220821324800F0C8FF01221021B4
:1003AC002F4800F0C3FF012220212D4800F0BEFF92
:1003BC00012240212A4800F0B9FF4CE07B68082B51
:1003CC0023D100220121264800F0B0FF0022022197
:1003DC00234800F0ABFF00220421214800F0A6FFC7
:1003EC00002208211E4800F0A1FF002210211C4809
:1003FC0000F09CFF00222021194800F097FF0022FA
:10040C004021174800F092FF25E07B68092B22D190
:10041C0000220121124800F089FF0022022110481D
:10042C0000F084FF002204210D4800F07FFF002221
:10043C0008210B4800F07AFF01221021084800F037
:10044C0075FF00222021064800F070FF0022402199
:10045C00034800F06BFF00BF0837BD4680BD00BFEE
:10046C000008014080B586B000AF07F120037B6027
:10047C0000F078FC00F058FB00F092FB0022012108
:10048C00BF4800F053FF00220221BD4800F04EFF90
:10049C0000220421BA4800F049FF00220821B84884
:1004AC0000F044FF00221021B54800F03FFF00226D
:1004BC002021B34800F03AFF00224021B04800F060
:1004CC0035FF00228021AE4800F030FF00224FF4AF
:1004DC008071AB4800F02AFF00224FF40071A8484D
:1004EC0000F024FF00224FF48061A54800F01EFFAD
:1004FC0000224FF40061A24800F018FF01220121F4
:10050C00A04800F013FF012202219E4800F00EFFCC
:10051C00012204219B4800F009FF0122082199487F
:10052C0000F004FF01221021964800F0FFFE01228A
:10053C002021944800F0FAFE01224021914800F05D
:10054C00F5FE012280218F4800F0F0FE01224FF4CD
:10055C0080718C4800F0EAFE01224FF4007189484A
:10056C0000F0E4FE01224FF48061864800F0DEFECC
:10057C0001224FF40061834800F0D8FE01224FF4B1
:10058C008051804800F0D2FE01224FF400517D488A
:10059C0000F0CCFE00237B6100233B610A23FB604F
:1005AC000A23BB607B6901337B613B6901333B618F
:1005BC00FB68013BFB60BB68013BBB607B69052BA7
:1005CC001BDC002202216E4800F0B0FE00228021CC
:1005DC006B4800F0ABFE01220121694800F0A6FE39
:1005EC0001224021664800F0A1FEFB68053B3A1D44
:1005FC0094461846FFF7A4FD42E07B69052B1FDDEE
:10060C007B69082B1CDC002201215D4800F08EFE6A
:10061C00002240215A4800F089FE0122042158484A
:10062C0000F084FE01224FF48071554800F07EFEEC
:10063C00FB68023B3A1D94461846FFF781FD1FE00C
:10064C007B69082B1CDD7B690A2B19DC0022042139
:10065C004B4800F06BFE00224FF48071484800F0CC
:10066C0065FE01220221464800F060FE0122802135
:10067C00434800F05BFE3B1D9C46F868FFF760FDAD
:10068C003B69032B1DDC002208213D4800F04EFE87
:10069C0000224FF400713A4800F048FE012220215C
:1006AC00374800F043FE01224FF40061344800F05B
:1006BC003DFEBB68073B3A1D9446184600F064F8B3
:1006CC0044E03B69032B20DD3B69052B1DDC01223B
:1006DC0010212B4800F02AFE01224FF4806128489B
:1006EC0000F024FE00222021254800F01FFE0022ED
:1006FC004FF40061224800F019FEBB68053B3A1D1F
:10070C009446184600F040F820E03B69052B1DDDAF
:10071C003B690A2B1ADC01220821194800F006FE5D
:10072C0001224FF40071164800F000FE0022102147
:10073C00134800F0FBFD00224FF48061104800F0DC
:10074C00F5FD3B1D9C46B86800F01EF87B69092B33
:10075C0001DD00237B613B69092B01DD00233B613B
:10076C00FB68002B01DC0A23FB60BB68002B01DC5F
:10077C000A23BB604FF47A7000F056FB12E700BFFF
:10078C00000C01400008014080B582B000AF7860D9
:10079C00C7F800C07B68002B29D100228021C848F3
:1007AC0000F0C4FD00224FF48071C54800F0BEFD7E
:1007BC0000224FF40071C24800F0B8FD00224FF443
:1007CC008061BF4800F0B2FD00224FF40061BC48CC
:1007DC0000F0ACFD00224FF48051B94800F0A6FDAA
:1007EC0001224FF40051B64800F0A0FD96E17B6861
:1007FC00012B29D101228021B14800F097FD002264
:10080C004FF48071AE4800F091FD00224FF400715E
:10081C00AB4800F08BFD01224FF48061A84800F03A
:10082C0085FD01224FF40061A54800F07FFD0122F7
:10083C004FF48051A24800F079FD01224FF4005191
:10084C009F4800F073FD69E17B68022B29D10022DF
:10085C0080219B4800F06AFD00224FF4807198487B
:10086C0000F064FD01224FF40071954800F05EFD2C
:10087C0000224FF48061924800F058FD00224FF4A2
:10088C0000618F4800F052FD01224FF480518C48DA
:10089C0000F04CFD00224FF40051894800F046FD59
:1008AC003CE17B68032B29D100228021844800F095
:1008BC003DFD00224FF48071814800F037FD00228D
:1008CC004FF400717E4800F031FD00224FF480613E
:1008DC007B4800F02BFD01224FF40061784800F0BA
:1008EC0025FD01224FF48051754800F01FFD0022B8
:1008FC004FF40051724800F019FD0FE17B68042B96
:10090C0029D1012280216E4800F010FD00224FF405
:10091C0080716B4800F00AFD00224FF400716848AA
:10092C0000F004FD01224FF48061654800F0FEFCEC
:10093C0001224FF40061624800F0F8FC00224FF4F1
:10094C0080515F4800F0F2FC00224FF400515C48EB
:10095C0000F0ECFCE2E07B68052B29D10022802121
:10096C00574800F0E3FC01224FF48071544800F02A
:10097C00DDFC00224FF40071514800F0D7FC00223E
:10098C004FF480614E4800F0D1FC01224FF400611D
:10099C004B4800F0CBFC00224FF48051484800F04B
:1009AC00C5FC00224FF40051454800F0BFFCB5E0F7
:1009BC007B68062B29D100228021414800F0B6FC2F
:1009CC0001224FF480713E4800F0B0FC00224FF43D
:1009DC0000713B4800F0AAFC00224FF480613848BB
:1009EC0000F0A4FC00224FF40061354800F09EFC9E
:1009FC0000224FF48051324800F098FC00224FF452
:100A0C0000512F4800F092FC88E07B68072B29D11D
:100A1C00002280212A4800F089FC00224FF48071CA
:100A2C00274800F083FC00224FF40071244800F0AA
:100A3C007DFC01224FF48061214800F077FC0122FB
:100A4C004FF400611E4800F071FC01224FF48051FC
:100A5C001B4800F06BFC01224FF40051184800F0C9
:100A6C0065FC5BE07B68082B2CD1002280211448AC
:100A7C0000F05CFC00224FF48071114800F056FC31
:100A8C0000224FF400710E4800F050FC00224FF48D
:100A9C0080610B4800F04AFC00224FF400610848CA
:100AAC0000F044FC00224FF48051054800F03EFC5D
:100ABC0000224FF40051024800F038FC2EE000BF39
:100ACC00000801407B68092B28D1002280211548A1
:100ADC0000F02CFC00224FF48071124800F026FC30
:100AEC0000224FF400710F4800F020FC00224FF45C
:100AFC0080610C4800F01AFC01224FF40061094897
:100B0C0000F014FC00224FF48051064800F00EFC5B
:100B1C0000224FF40051034800F008FC00BF0837D6
:100B2C00BD4680BD0008014080B590B000AF07F114
:100B3C00180328220021184601F010F83B1D002252
:100B4C001A605A609A60DA601A610223BB61012351
:100B5C00BB621023FB6200237B6307F1180318466A
:100B6C0000F0FCFB0346002B01D000F06FF80F23C4
:100B7C007B600023BB600023FB6000233B610023F0
:100B8C007B613B1D0021184600F068FE0346002BDC
:100B9C0001D000F05BF800BF4037BD4680BD0000BF
:100BAC0080B586B000AF07F1080300221A605A60C6
:100BBC009A60DA60224B9B69214A43F004039361EB
:100BCC001F4B9B6903F004037B607B681C4B9B6988
:100BDC001B4A43F008039361194B9B6903F008030C
:100BEC003B603B68002243F6FF71164800F09EFB09
:100BFC00002240F6FF71144800F098FB43F6FF7397
:100C0C00BB600123FB6000233B6102237B6107F186
:100C1C00080319460B4800F00FFA40F6FF73BB604F
:100C2C000123FB6000233B6102237B6107F1080376
:100C3C001946054800F000FA00BF1837BD4680BDC4
:100C4C000010024000080140000C014080B400AFCD
:100C5C0072B600BFFEE7000080B485B000AF154B44
:100C6C009B69144A43F001039361124B9B6903F097
:100C7C000103BB60BB680F4BDB690E4A43F080532A
:100C8C00D3610C4BDB6903F080537B607B680A4BB0
:100C9C005B68FB60FB6823F0E063FB60FB6843F080
:100CAC008063FB60044AFB68536000BF1437BD4689
:100CBC0080BC7047001002400000014080B400AFBF
:100CCC00FEE780B400AFFEE780B400AFFEE780B46F
:100CDC0000AFFEE780B400AFFEE780B400AF00BF0A
:100CEC00BD4680BC704780B400AF00BFBD4680BC21
:100CFC00704780B400AF00BFBD4680BC704780B564
:100D0C0000AF00F075F800BF80BD80B400AF00BF2D
:100D1C00BD4680BC70470000FFF7F7FF0B480C493D
:100D2C000C4A002302E0D458C4500433C4188C423B
:100D3C00F9D3094A094C002301E013600432A242A2
:100D4C00FBD300F0E7FEFFF78DFB7047000000209F
:100D5C000C000020BC1B00080C0000202C00002004
:100D6C00FEE7000080B500AF084B1B68074A43F054
:100D7C0010031360032000F02BF90F2000F008F88B
:100D8C00FFF76AFF0023184680BD00BF0020024019
:100D9C0080B582B000AF7860124B1A68124B1B788A
:100DAC0019464FF47A73B3FBF1F3B2FBF3F3184625
:100DBC0000F035F90346002B01D001230EE07B68CF
:100DCC000F2B0AD8002279684FF0FF3000F00BF996
:100DDC00064A7B681360002300E00123184608379D
:100DEC00BD4680BD0000002008000020040000204B
:100DFC0080B400AF054B1B781A46054B1B68134497
:100E0C00034A136000BFBD4680BC70470800002039
:100E1C002800002080B400AF024B1B681846BD466A
:100E2C0080BC70472800002080B584B000AF78608B
:100E3C00FFF7F0FFB8607B68FB60FB68B3F1FF3F26
:100E4C0005D00A4B1B781A46FB681344FB6000BFA5
:100E5C00FFF7E0FF0246BB68D31AFA689A42F7D84C
:100E6C0000BF00BF1037BD4680BD00BF080000208A
:100E7C0080B485B000AF78607B6803F00703FB603B
:100E8C000C4BDB68BB60BA684FF6FF031340BB60CA
:100E9C00FB681A02BB68134343F0BF6343F400338F
:100EAC00BB60044ABB68D36000BF1437BD4680BC2E
:100EBC00704700BF00ED00E080B400AF044BDB686E
:100ECC001B0A03F007031846BD4680BC704700BFE1
:100EDC0000ED00E080B483B000AF03463960FB71D5
:100EEC0097F90730002B0ADB3B68DAB20C4997F90B
:100EFC0007301201D2B20B4483F800230AE03B689E
:100F0C00DAB20849FB7903F00F03043B1201D2B2A9
:100F1C000B441A7600BF0C37BD4680BC704700BF2F
:100F2C0000E100E000ED00E080B489B000AFF860B3
:100F3C00B9607A60FB6803F00703FB61FB69C3F1DE
:100F4C000703042B28BF0423BB61FB690433062B66
:100F5C0002D9FB69033B00E000237B614FF0FF32B9
:100F6C00BB6902FA03F3DA43BB681A407B699A4007
:100F7C004FF0FF317B6901FA03F3D9437B680B40D7
:100F8C00134318462437BD4680BC704780B582B0E9
:100F9C0000AF78607B68013BB3F1807F01D3012304
:100FAC000FE00A4A7B68013B53600F214FF0FF3082
:100FBC00FFF790FF054B00229A60044B07221A6042
:100FCC00002318460837BD4680BD00BF10E000E086
:100FDC0080B582B000AF78607868FFF749FF00BF3A
:100FEC000837BD4680BD80B586B000AF0346B960FA
:100FFC007A60FB7300237B61FFF75EFF78617A6890
:10100C00B9687869FFF790FF024697F90F301146DF
:10101C001846FFF75FFF00BF1837BD4680BD80B58F
:10102C0082B000AF78607868FFF7B0FF03461846CF
:10103C000837BD4680BD000080B48BB000AF78602F
:10104C00396000237B6200233B6248E101227B6A0A
:10105C0002FA03F3FB613B681B68FA691340BB613E
:10106C00BA69FB699A4240F037813B685B68A34AD6
:10107C0093425ED0A14A934275D8A14A934258D06C
:10108C009F4A93426FD89F4A934252D09D4A9342B3
:10109C0069D89D4A93424CD09B4A934263D89B4A51
:1010AC00934246D0994A93425DD8122B2AD8122BE0
:1010BC0059D801A252F823F03F1100081911000869
:1010CC002B1100086D110008731100087311000832
:1010DC0073110008731100087311000873110008D4
:1010EC0073110008731100087311000873110008C4
:1010FC007311000873110008731100082111000806
:10110C0035110008824A934213D02CE03B68DB680F
:10111C003B6229E03B68DB6804333B6224E03B68BC
:10112C00DB6808333B621FE03B68DB680C333B62D7
:10113C001AE03B689B68002B02D104233B6213E04E
:10114C003B689B68012B05D108233B627B68FA69DD
:10115C001A6109E008233B627B68FA695A6103E073
:10116C0000233B6200E000BFBB69FF2B01D87B680A
:10117C0001E07B6804337B61BB69FF2B02D87B6A7F
:10118C009B0002E07B6A083B9B003B617B691A6811
:10119C000F213B6901FA03F3DB431A40396A3B69BF
:1011AC0001FA03F31A437B691A603B685B6803F02E
:1011BC008053002B00F09080564B9B69554A43F0AE
:1011CC0001039361534B9B6903F00103BB60BB6844
:1011DC00514A7B6A9B08023352F82330FB607B6ACE
:1011EC0003F003039B000F2202FA03F3DB43FA68BC
:1011FC001340FB607B68494A93420DD07B68484A98
:10120C00934207D07B68474A934201D1022304E002
:10121C00032302E0012300E000237A6A02F00302B8
:10122C0092009340FA681343FB603B497B6A9B082E
:10123C000233FA6841F823203B685B6803F480139F
:10124C00002B06D0384B9A683749BB6913438B6027
:10125C0006E0354B9A68BB69DB43334913408B601E
:10126C003B685B6803F40013002B06D02E4BDA6846
:10127C002D49BB691343CB6006E02B4BDA68BB6985
:10128C00DB4329491340CB603B685B6803F40033B4
:10129C00002B06D0244B5A682349BB6913434B607F
:1012AC0006E0214B5A68BB69DB431F4913404B6076
:1012BC003B685B6803F48033002B06D01A4B1A682A
:1012CC001949BB6913430B6006E0174B1A68BB69DD
:1012DC00DB43154913400B607B6A01337B623B682F
:1012EC001A687B6A22FA03F3002B7FF4AFAE00BFBF
:1012FC0000BF2C37BD4680BC704700BF00003210C9
:10130C00000031100000221000002110000012100B
:10131C0000001110001002400000014000080140C4
:10132C00000C0140001001400004014080B483B067
:10133C0000AF78600B467B8013467B707B78002B6C
:10134C0003D07A887B681A6103E07B881A047B6877
:10135C001A6100BF0C37BD4680BC704780B586B0A3
:10136C0000AF78607B68002B01D101236CE27B68B5
:10137C001B6803F00103002B00F08780924B5B6825
:10138C0003F00C03042B0CD08F4B5B6803F00C03A5
:10139C00082B12D18C4B5B6803F48033B3F5803F80
:1013AC000BD1894B1B6803F40033002B6CD07B688A
:1013BC005B68002B68D1012346E27B685B68B3F560
:1013CC00803F06D1804B1B687F4A43F48033136007
:1013DC002EE07B685B68002B0CD17B4B1B687A4A38
:1013EC0023F480331360784B1B68774A23F48023F3
:1013FC0013601DE07B685B68B3F5A02F0CD1724BBA
:10140C001B68714A43F4802313606F4B1B686E4A50
:10141C0043F4803313600BE06B4B1B686A4A23F474
:10142C0080331360684B1B68674A23F48023136076
:10143C007B685B68002B13D0FFF7ECFC386108E08D
:10144C00FFF7E8FC02463B69D31A642B01D903234E
:10145C00FAE15D4B1B6803F40033002BF0D014E071
:10146C00FFF7D8FC386108E0FFF7D4FC02463B6973
:10147C00D31A642B01D90323E6E1534B1B6803F405
:10148C000033002BF0D100E000BF7B681B6803F039
:10149C000203002B63D04C4B5B6803F00C03002B56
:1014AC000BD0494B5B6803F00C03082B1CD1464B4B
:1014BC005B6803F48033002B16D1434B1B6803F09D
:1014CC000203002B05D07B681B69012B01D0012383
:1014DC00BAE13D4B1B6823F0F8027B685B69DB00CB
:1014EC00394913430B603AE07B681B69002B20D011
:1014FC00364B01221A60FFF78DFC386108E0FFF7CC
:10150C0089FC02463B69D31A022B01D903239BE1C8
:10151C002D4B1B6803F00203002BF0D02A4B1B68E9
:10152C0023F0F8027B685B69DB00274913430B60EF
:10153C0015E0264B00221A60FFF76CFC386108E0BE
:10154C00FFF768FC02463B69D31A022B01D903232F
:10155C007AE11D4B1B6803F00203002BF0D17B6872
:10156C001B6803F00803002B3AD07B689B69002BA7
:10157C0019D0174B01221A60FFF74CFC386108E0B8
:10158C00FFF748FC02463B69D31A022B01D903230F
:10159C005AE10D4B5B6A03F00203002BF0D00120E3
:1015AC0000F09AFA1CE00A4B00221A60FFF732FC9A
:1015BC0038610FE0FFF72EFC02463B69D31A022B71
:1015CC0008D9032340E100BF001002400000424252
:1015DC00800442429E4B5B6A03F00203002BE9D16C
:1015EC007B681B6803F00403002B00F0A68000232B
:1015FC00FB75974BDB6903F08053002B0DD1944B9B
:10160C00DB69934A43F08053D361914BDB6903F060
:10161C008053BB60BB680123FB758E4B1B6803F4C6
:10162C008073002B18D18B4B1B688A4A43F4807350
:10163C001360FFF7EFFB386108E0FFF7EBFB0246A6
:10164C003B69D31A642B01D90323FDE0814B1B6842
:10165C0003F48073002BF0D07B68DB68012B06D180
:10166C007B4B1B6A7A4A43F0010313622DE07B68C3
:10167C00DB68002B0CD1764B1B6A754A23F00103F7
:10168C001362734B1B6A724A23F0040313621CE04F
:10169C007B68DB68052B0CD16D4B1B6A6C4A43F0E5
:1016AC00040313626A4B1B6A694A43F00103136219
:1016BC000BE0674B1B6A664A23F001031362644B11
:1016CC001B6A634A23F0040313627B68DB68002BFC
:1016DC0015D0FFF79FFB38610AE0FFF79BFB024632
:1016EC003B69D31A41F28832934201D90323ABE010
:1016FC00574B1B6A03F00203002BEED014E0FFF7EC
:10170C0089FB38610AE0FFF785FB02463B69D31A77
:10171C0041F28832934201D9032395E04C4B1B6A6A
:10172C0003F00203002BEED1FB7D012B05D1484BBE
:10173C00DB69474A23F08053D3617B68DB69002B5C
:10174C0000F08180424B5B6803F00C03082B61D0E6
:10175C007B68DB69022B46D13F4B00221A60FFF7F6
:10176C0059FB386108E0FFF755FB02463B69D31A79
:10177C00022B01D9032367E0354B1B6803F0007380
:10178C00002BF0D17B681B6AB3F5803F08D1304B3E
:10179C005B6823F400327B689B682D4913434B60D4
:1017AC002B4B5B6823F474127B68196A7B685B6A49
:1017BC000B43274913434B60274B01221A60FFF759
:1017CC0029FB386108E0FFF725FB02463B69D31A79
:1017DC00022B01D9032337E01D4B1B6803F0007368
:1017EC00002BF0D02FE01C4B00221A60FFF712FBED
:1017FC00386108E0FFF70EFB02463B69D31A022B57
:10180C0001D9032320E0124B1B6803F00073002B5B
:10181C00F0D118E07B68DB69012B01D1012313E0C7
:10182C000B4B5B68FB60FB6803F480327B681B6AC4
:10183C009A4206D1FB6803F470127B685B6A9A4289
:10184C0001D0012300E0002318461837BD4680BDA7
:10185C0000100240007000406000424280B584B02D
:10186C0000AF786039607B68002B01D10123D0E098
:10187C006A4B1B6803F007033A689A4210D9674B0E
:10188C001B6823F0070265493B6813430B60634BED
:10189C001B6803F007033A689A4201D00123B8E0B1
:1018AC007B681B6803F00203002B20D07B681B684D
:1018BC0003F00403002B05D0594B5B68584A43F4E2
:1018CC00E06353607B681B6803F00803002B05D0B2
:1018DC00534B5B68524A43F460535360504B5B6804
:1018EC0023F0F0027B689B684D4913434B607B6887
:1018FC001B6803F00103002B40D07B685B68012B55
:10190C0007D1474B1B6803F40033002B15D101237F
:10191C007FE07B685B68022B07D1414B1B6803F0AF
:10192C000073002B09D1012373E03D4B1B6803F0BE
:10193C000203002B01D101236BE0394B5B6823F0D0
:10194C0003027B685B68364913434B60FFF762FA0E
:10195C00F8600AE0FFF75EFA0246FB68D31A41F220
:10196C008832934201D9032353E02D4B5B6803F07B
:10197C000C027B685B689B009A42EBD1274B1B687F
:10198C0003F007033A689A4210D2244B1B6823F0E9
:10199C00070222493B6813430B60204B1B6803F082
:1019AC0007033A689A4201D0012332E07B681B6836
:1019BC0003F00403002B08D0194B5B6823F4E0629E
:1019CC007B68DB68164913434B607B681B6803F02C
:1019DC000803002B09D0124B5B6823F460527B6820
:1019EC001B69DB000E4913434B6000F021F80246E3
:1019FC000B4B5B681B0903F00F030A49CB5C22FA03
:101A0C0003F3094A1360094B1B681846FFF7C0F92A
:101A1C00002318461037BD4680BD00BF0020024091
:101A2C0000100240901B0008000000200400002061
:101A3C0080B487B000AF0023FB600023BB600023A1
:101A4C007B6100237B6000233B611E4B5B68FB606A
:101A5C00FB6803F00C03042B02D0082B03D027E007
:101A6C00194B3B6127E0FB689B0C03F00F03174AF3
:101A7C00D35C7B60FB6803F48033002B10D0114BDC
:101A8C005B685B0C03F00103114AD35CBB607B68A1
:101A9C000D4A02FB03F2BB68B2FBF3F37B6104E07B
:101AAC007B680C4A02FB03F37B617B693B6102E0C0
:101ABC00054B3B6100BF3B6918461C37BD4680BCDB
:101ACC00704700BF0010024000127A00A01B0008F3
:101ADC00B01B000800093D0080B485B000AF7860F1
:101AEC000A4B1B680A4AA2FB03235B0A7A6802FBB7
:101AFC0003F3FB6000BFFB685A1EFA60002BF9D1A0
:101B0C0000BF00BF1437BD4680BC704700000020EA
:101B1C00D34D621070B500260C4D0D4C641BA410F7
:101B2C00A64209D100F022F800260A4D0A4C641B8B
:101B3C00A410A64205D170BD55F8043B9847013658
:101B4C00EEE755F8043B98470136F2E7B41B000862
:101B5C00B41B0008B41B0008B81B00080346024461
:101B6C00934200D1704703F8011BF9E7F8B500BFA9
:101B7C00F8BC08BC9E467047F8B500BFF8BC08BC62
:041B8C009E467047BA
:101B9000000000000000000001020304060708091D
:101BA00002030405060708090A0B0C0D0E0F10109E
:041BB000010200002E
:041BB40031010008F3
:041BB8000D01000813
:0C1BBC0000127A00100000000100000080
:0400000508000D25BD
:00000001FF
